:100000000C9469010C9491010C9491010C943205AB
:100010000C9432050C9432050C9491010C949101CE
:100020000C9491010C9491010C9491010C94910108
:100030000C9491010C9491010C9491010C949101F8
:100040000C94E8040C9491010C949A030C9474039E
:100050000C9491010C9491010C9491010C949101D8
:100060000C9491010C94910100407A10F35A00A075
:10007000724E18090010A5D4E80000E87648170071
:1000800000E40B54020000CA9A3B000000E1F505B1
:10009000000080969800000040420F000000A086FB
:1000A00001000000102700000000E803000000002D
:1000B0006400000000000A000000000001000000D1
:1000C00000002C76D888DC674F0823DFC1DFAE59EB
:1000D000E1B1B796E5E3E453C63AE651997696E87E
:1000E000E6C28426EB898C9B62ED407C6FFCEFBC02
:1000F0009C9F40F2BAA56FA5F490055A2AF75C932D
:100100006B6CF9676DC11BFCE0E40D47FEF520E662
:10011000B500D0ED902E0300943577050080841E45
:10012000080000204E0A000000C80C333333330FA0
:10013000986E12831141EF8D2114893BE65516CF3D
:10014000FEE6DB18D1844B381BF77C1D901DA4BB49
:10015000E424203284725E228100C9F124ECA1E5FE
:100160003D2776657200302E342E3800682D62658A
:10017000617400313000627566662D696E0032353B
:1001800036006465760041726475696E6F20556E45
:100190006F006370750041546D656761333238508C
:1001A00000636F6E0053747265616D006275696CF7
:1001B00064004F63742032372032303137203135BC
:1001C0003A35383A3430000000000000240027009F
:1001D0002A002D2D2D2D2D2D2D2D2D2D2D2D2D00AC
:1001E000426C796E6B2076302E342E383A2044657E
:1001F0007669636520737461727465640000000041
:1002000008000201000003040700000000000000D5
:10021000009A029A029A029A029A029A029A029A00
:10022000029A029A029A029A029A029A029A029AEE
:10023000029A029A029A029A029A029A029A029ADE
:10024000029A029A029A029A029A029A029A029ACE
:1002500002990299029902990299029902990299C6
:1002600002990299029902990299029902990299B6
:1002700002990299029902990299029902990299A6
:100280000299029902990299029902990299029996
:100290000200000000250028002B000000000023C1
:1002A00000260029000404040404040404020202D9
:1002B00002020203030303030301020408102040A7
:1002C0008001020408102001020408102000CA1155
:1002D000B60E11241FBECFEFD8E0DEBFCDBF11E0B8
:1002E000A0E0B1E0E2E0F3E302C005900D92A8388F
:1002F000B107D9F725E0A8E8B1E001C01D92AB3CF9
:10030000B207E1F711E0C8E6D1E004C02197FE0191
:100310000E944819C736D107C9F70E94070F0C94ED
:1003200074190C940000CF92DF92EF92FF920F931A
:100330001F93CF93DF936C017A018B01C0E0D0E073
:10034000CE15DF0589F0D8016D918D01D601ED91B3
:10035000FC910190F081E02DC6010995892B11F4E3
:100360007E0102C02196ECCFC701DF91CF911F9192
:100370000F91FF90EF90DF90CF900895FC01538D87
:10038000448D252F30E0842F90E0821B930B54176F
:1003900010F0CF96089501970895FC01918D828DFC
:1003A000981761F0828DDF01A80FB11D5D968C91C9
:1003B000928D9F5F9F73928F90E008958FEF9FEFD4
:1003C0000895FC01918D828D981731F0828DE80F90
:1003D000F11D858D90E008958FEF9FEF0895FC014A
:1003E000918D228D892F90E0805C9F4F821B910917
:1003F0008F739927089585ED91E00E94EF0121E028
:10040000892B09F420E0822F0895FC01848DDF01FF
:10041000A80FB11DA35ABF4F2C91848D90E0019677
:100420008F739927848FA689B7892C93A089B18966
:100430008C9180648C93938D848D981306C0028870
:10044000F389E02D80818F7D80830895EF92FF9264
:100450000F931F93CF93DF93EC0181E0888F9B8DE7
:100460008C8D981305C0E889F989808185FD24C0A9
:10047000F62E0B8D10E00F5F1F4F0F731127E02E2C
:100480008C8DE8120CC00FB607FCFACFE889F98909
:10049000808185FFF5CFCE010E940502F1CF8B8DC3
:1004A000FE01E80FF11DE35AFF4FF0820B8FEA893E
:1004B000FB898081806207C0EE89FF896083E889BB
:1004C000F98980818064808381E090E0DF91CF9121
:1004D0001F910F91FF90EF900895CF93DF93EC0160
:1004E000888D8823C9F0EA89FB89808185FD05C054
:1004F000A889B9898C9186FD0FC00FB607FCF5CF8E
:10050000808185FFF2CFA889B9898C9185FFEDCFD5
:10051000CE010E940502E7CFDF91CF91089580E0E0
:1005200090E0892B29F00E94FB0181110C940000BE
:100530000895089508952091D3013091D40128178A
:10054000390771F49091D1018091D201981741F04F
:10055000E091D101F0E0E857FE4F808190E00895EE
:100560008FEF9FEF089508951F93CF93DF93DC01E2
:100570005C962D913C915D972115310539F481E010
:1005800090E013969C938E9312973DC05196ED91F7
:10059000FC91529750969C915097892F80951FB748
:1005A0005E964C915E9741FB772770F941FD60950F
:1005B000F8944081772311F0492B01C048234083F0
:1005C000E9012197F1F748E0508160FF02C0592B03
:1005D00001C058235083E9012197F1F766954150F6
:1005E00099F7772321F090818923808303C080814C
:1005F000982B90831FBF5C968D919C915D9701977E
:10060000F1F721E030E0C901DF91CF911F9108950A
:100610002091D3013091D4012817390771F48091CA
:10062000D2012091D10190E0805C9F4F821B910903
:1006300060E470E00E942019089580E090E0089541
:100640002091D3013091D40128173907B9F4909142
:10065000D1018091D201981789F0E091D101F0E0A9
:10066000E857FE4F80812091D10130E02F5F3F4F4E
:100670002F7333272093D10190E008958FEF9FEFE0
:100680000895E091D301F091D401E817F90769F4D6
:10069000A389B4899C918589809589238C93109234
:1006A000D4011092D30181E0089580E00895FC0107
:1006B000EB5BFF4F308121E0230F2083FC01E30F30
:1006C000F11D6583203438F0DC01ED91FC9106804A
:1006D000F781E02D099581E090E00895089580E08C
:1006E00090E008950E944E191F920F920FB60F923C
:1006F00011242F933F934F935F936F937F938F9327
:100700009F93AF93BF93EF93FF9385ED91E00E948A
:100710000502FF91EF91BF91AF919F918F917F91D2
:100720006F915F914F913F912F910F900FBE0F905E
:100730001F9018951F920F920FB60F9211242F93AE
:100740008F939F93EF93FF93E091E501F091E60182
:100750008081E091EB01F091EC0182FD12C090816B
:100760008091EE018F5F8F732091EF01821751F01E
:10077000E091EE01F0E0EB52FE4F958F8093EE0199
:1007800001C08081FF91EF919F918F912F910F90E8
:100790000FBE0F901F901895833081F028F48130A0
:1007A00099F08230A1F008958730A9F08830B9F02F
:1007B0008430D1F4809180008F7D03C080918000CF
:1007C0008F7780938000089584B58F7702C084B5B9
:1007D0008F7D84BD08958091B0008F7703C0809194
:1007E000B0008F7D8093B00008951F93CF93DF9367
:1007F000282F30E0F901E350FE4F8491F901E754CE
:10080000FD4FD491F901EB55FD4FC491CC23C9F0B4
:10081000162F81110E94CC03EC2FF0E0EE0FFF1F8A
:10082000EF56FD4FA591B4918FB7F894111105C003
:100830009C91ED2FE095E92302C0EC91ED2BEC9318
:100840008FBFDF91CF911F9108950F931F93CF9387
:10085000DF93EC0160E088810E94F50383E090E083
:100860000197F1F761E088810E94F50383E290E04F
:100870000197F1F760E088810E94F5038A819B81EE
:100880009927FC01E754FD4F6491FC01EB55FD4FA6
:10089000E491F0E0EE0FFF1FE556FD4F8591949136
:1008A00000E412E42FE030E0462F0E94710E611543
:1008B00071058105910549F0DC01CB010196A11D6F
:1008C000B11DBC01CD019F7003C060E070E0CB01A1
:1008D0000E941F1722E03BE247E05DE30E947E1783
:1008E00020E030E040E05FE30E947E17DF91CF918F
:1008F0001F910F910895CF93DF9390E0FC01E7548F
:10090000FD4F2491FC01EB55FD4F8491882361F14B
:1009100090E0880F991FFC01E853FE4FC591D491D8
:10092000FC01EF56FD4FA591B491611109C09FB72D
:10093000F8948881209582238883EC912E230BC024
:10094000623061F49FB7F8943881822F80958323B9
:100950008883EC912E2B2C939FBF06C08FB7F89401
:10096000E8812E2B28838FBFDF91CF9108953FB769
:10097000F8948091CD019091CE01A091CF01B091DA
:10098000D00126B5A89B05C02F3F19F00196A11DE7
:10099000B11D3FBFBA2FA92F982F8827820F911D15
:1009A000A11DB11DBC01CD0142E0660F771F881F5C
:1009B000991F4A95D1F708952FB7F8946091C9010E
:1009C0007091CA018091CB019091CC012FBF089505
:1009D0001F920F920FB60F9211242F933F938F9374
:1009E0009F93AF93BF938091C9019091CA01A09149
:1009F000CB01B091CC013091C80123E0230F2D37FA
:100A000020F40196A11DB11D05C026E8230F029612
:100A1000A11DB11D2093C8018093C9019093CA0103
:100A2000A093CB01B093CC018091CD019091CE01E8
:100A3000A091CF01B091D0010196A11DB11D80936D
:100A4000CD019093CE01A093CF01B093D001BF917F
:100A5000AF919F918F913F912F910F900FBE0F906B
:100A60001F9018951F920F920FB60F9211242F937B
:100A70003F934F935F936F937F938F939F93AF9326
:100A8000BF93EF93FF93E091D301F091D40130979E
:100A900009F451C0968DA685B785858591FF04C060
:100AA0009C91892329F447C09C91892309F043C074
:100AB000A389B4899C918589809589238C938689A3
:100AC00097890197F1F7608D718DA685B78555855A
:100AD00038E020E0CB010197F1F7822F90E0959567
:100AE0008795282F4C91452309F02068315091F7C4
:100AF000868D81FD20958091D20190E001968F73C3
:100B000099273091D101381749F0A091D201B0E076
:100B1000A857BE4F2C938093D20103C0868D81606D
:100B2000868F828D938D0197F1F7A389B4899C916B
:100B30008589892B8C93FF91EF91BF91AF919F9104
:100B40008F917F916F915F914F913F912F910F9076
:100B50000FBE0F901F901895CF92DF92EF92FF92E9
:100B60000F931F93CF93DF93EC0183E090E0998381
:100B7000888384E090E09B838A8361E083E00E9425
:100B80007B0460E08A810E947B0480E090E4ACE119
:100B9000B6EC8E839F83A887B98706E910E0CE0163
:100BA0000E9425046B017C016A8B7B8B8C8B9D8B57
:100BB0009B01AC016E817F81888599850E94181701
:100BC00087FF04C0CE82DF82E886F98601501109D2
:100BD00031F7DF91CF911F910F91FF90EF90DF9050
:100BE000CF9008958F929F92AF92BF92CF92DF9253
:100BF000EF92FF920F931F93CF93DF936C018B01C2
:100C00007B01E40EF51E0E94DC044B015C01E8014F
:100C1000CE15DF0580F0CE01801B910BDF91CF91C7
:100C20001F910F91FF90EF90DF90CF90BF90AF900A
:100C30009F908F9008950E94DC04DC01CB018819FD
:100C40009909AA09BB09803D9740A105B10518F78C
:100C5000D6018D919C91DC01ED91FC910284F3858C
:100C6000E02D099597FDD4CF8993D2CF4F925F9213
:100C70006F927F929F92AF92BF92CF92DF92EF924C
:100C8000FF920F931F93CF93DF9300D000D01F925A
:100C9000CDB7DEB75C01962E390141155105E9F457
:100CA000DC0158964D915C91599741155105A9F475
:100CB00056968D919C915797019629F057969C9343
:100CC0008E93569705C081E090E0F501978B868B57
:100CD000D50156964D915C915797D501ED91FC91B8
:100CE0008281882309F4CDC0892D8D7F59F0B6E02B
:100CF0009B1641F0D5015A968D919C915B97019777
:100D000009F0BFC06114710409F0B9C0412C512C25
:100D1000B5E04B0E511CE114F10411F0C60102C004
:100D200080E090E0480E591E9982542745275427A9
:100D30005B834A83C8018C0D9D1D982789279827BE
:100D40009D838C8380819181DC01ED91FC910280F7
:100D5000F381E02D45E050E0BE016F5F7F4F0995C4
:100D60000E946F0E992071F10115110599F0D501BE
:100D7000ED91FC9180819181DC01ED91FC910280EB
:100D8000F381E02DA801B30109950B5F1F4F0E946D
:100D90006F0E02C005E010E0C114D104A9F0D50126
:100DA000ED91FC9180819181DC01ED91FC910280BB
:100DB000F381E02DA601B70109950C0D1D1D0E94C0
:100DC0006F0E02C005E010E00415150541F0F501B5
:100DD000138E128E0190F081E02D128252C00E947B
:100DE000DC04AB01BC01F50182899389A489B58932
:100DF0008C019D01689414F83695279517950795F1
:100E00001694D1F76C017D01C01AD10AE20AF30AE7
:100E10009701860182859385A485B5856A017B014A
:100E2000C81AD90AEA0AFB0AD701C601E5E0B69555
:100E3000A79597958795EA95D1F70097A105B105F4
:100E400019F48FEF9FEFDC01800F911FA21FB31FDA
:100E5000F501828B938BA48BB58BC297A105B1054D
:100E600030F4138E128E0190F081E02D1282D501A4
:100E70001A964D935D936D937C931D9702C0280144
:100E800047CF0F900F900F900F900F90DF91CF9161
:100E90001F910F91FF90EF90DF90CF90BF90AF9098
:100EA0009F907F906F905F904F900895CF93DF93C6
:100EB000EC0188819981DC01ED91FC910680F7813C
:100EC000E02D099581E08A83DF91CF9108950F93FA
:100ED0001F93CF93DF93EC01FB0101900020E9F712
:100EE0008F01061B170B8A819B81A801480F591F90
:100EF0002C813D812417350768F028813981A801AC
:100F0000820F931F0E9453194A815B81400F511F2A
:100F10005B834A83DF91CF911F910F9108950F93C7
:100F20001F93CF93DF93CDB7DEB762970FB6F894D8
:100F3000DEBF0FBECDBF8C01CB014AE0BE016F5FAB
:100F40007F4F0E947514BE016F5F7F4FC8010E94E2
:100F5000670762960FB6F894DEBF0FBECDBFDF9174
:100F6000CF911F910F9108954F925F926F927F9250
:100F70008F929F92AF92BF92CF92DF92EF92FF92A9
:100F80000F931F93CF93DF93CDB7DEB7CB5AD10921
:100F90000FB6F894DEBF0FBECDBF88E195E00E948A
:100FA00025044B015C0160932A0570932B05809307
:100FB0002C0590932D05C0901E05D0901F05E09044
:100FC0002005F09021059B01AC01C701B6010E94EC
:100FD0003C18A70196010E94A91820E030E048ECD7
:100FE00052E40E947E176B017C016093360570937A
:100FF0003705809338059093390540902605509029
:101000002705609028057090290520E030E040E831
:101010005FE3C301B2010E943D18C855DF4F6883EA
:1010200079838A839B83C85AD0409B01AC01C50158
:10103000B4010E941B1918169CF020E030E040E833
:101040005FE3C301B2010E943C182B013C019B01EC
:10105000AC01C501B4010E941B1918160CF060C048
:1010600020E030E048EC51E4C701B6010E941817B7
:1010700087FF04C061E080913A05A9C020E030E01C
:1010800048EC51E4C701B6010E941B19181674F40C
:1010900020E030E048E452E4C701B6010E9418178E
:1010A00087FF04C061E080913C0591C020E030E002
:1010B00048E452E4C701B6010E941B1918169CF4BB
:1010C00020E030E046E952E4C701B6010E9418175B
:1010D00087FF09C061E080913C050E94F50361E053
:1010E00080913E0574C020E030E046E952E4C7013B
:1010F000B6010E941B1918160CF06BC061E08091BC
:101100003C050E94F50361E080913E050E94F503D5
:1011100061E0809140050E94F50361E082E057C0E4
:10112000C855DF4F288139814A815B81C85AD04038
:10113000C501B4010E94181787FD08C0A3019201E0
:10114000C501B4010E94181787FF43C020E030E0BA
:1011500048EC51E4C701B6010E94181787FF06C08A
:1011600060E080913C050E94F50314C020E030E06F
:1011700048EC51E4C701B6010E941B19181684F40B
:1011800020E030E048E452E4C701B6010E9418179D
:1011900087FF06C060E080913E050E94F50314C001
:1011A00020E030E048E452E4C701B6010E941B1978
:1011B00018167CF420E030E046E952E4C701B6019D
:1011C0000E94181787FF05C060E0809140050E94CB
:1011D000F50380912A0590912B05A0912C05B091E3
:1011E0002D058093260590932705A0932805B0939D
:1011F0002905CE010196CE55DF4F99838883C25AC7
:10120000D040CC55DF4F19821882C45AD04080E8B4
:1012100090E0CA55DF4F99838883C65AD04064E670
:1012200071E0CE018E559F4F0E94670763E070E02A
:10123000CE018E559F4F0E948F078E010F571F4F73
:1012400023E045E060E070E0CB010E940113B801AB
:10125000CE018E559F4F0E946707CC55DF4F088106
:101260001981C45AD04001501109CE55DF4F288151
:101270003981C25AD040C12CD12CE12CF12C40E054
:1012800050E064E188EA95E00E943606C555DF4FDC
:101290000FB6F894DEBF0FBECDBFDF91CF911F9187
:1012A0000F91FF90EF90DF90CF90BF90AF909F9005
:1012B0008F907F906F905F904F900895AF92BF9204
:1012C000CF92DF92EF92FF920F931F93CF93DF9312
:1012D000CDB7DEB72E970FB6F894DEBF0FBECDBFE9
:1012E0005C0125E4A20EB11CF501C080CC2051F1B7
:1012F0007C01FC01048110E0CE0101969A87898768
:101300001C861B8688E090E09E878D8764E671E0EE
:10131000CE0109960E946707B801CE0109960E9486
:101320008F07D12CF5E0EF0EF11C0B851C8529856C
:101330003A8540E050E064E188EA95E00E94360694
:10134000F50110822E960FB6F894DEBF0FBECDBF0A
:10135000DF91CF911F910F91FF90EF90DF90CF9091
:10136000BF90AF9008952F923F924F925F926F92ED
:101370007F928F929F92AF92BF92CF92DF92EF9225
:10138000FF920F931F93CF93DF93CDB7DEB76D9787
:101390000FB6F894DEBF0FBECDBF5C012DB63EB6D2
:1013A0000E946F0ED5015A968D919C915B97029782
:1013B00009F41DC1ED91FC919280992009F442C07D
:1013C00080819181DC01ED91FC910084F185E02D1B
:1013D000099518161906B4F545E050E0BE01695E9E
:1013E0007F4FD5018D919C910E94F205009709F4E1
:1013F00005C4059709F005C4888D998D982789271C
:101400009827998F888FEA8CFB8CFE24EF24FE248A
:10141000FB8EEA8E892B09F4F4C38F8981110CC1EC
:101420000E94DC04F5016683778380879187228D93
:10143000338D4A8D5B8D232B09F4DEC04530510579
:1014400009F4DFC30E94DC042B013C01F501828D0D
:10145000938D8130910509F061C091100BC04686D3
:101460005786608A718A138E128E0190F081E02D6A
:101470001282ECC3F50186819781A085B185A30115
:101480009201281B390B4A0B5B0BDA01C901813829
:101490003EE39307A105B10538F0138E128E01903B
:1014A000F081E02D1282A3C081319742A105B105E0
:1014B00098F4F50182859385A485B585A3019201F1
:1014C000281B390B4A0B5B0BDA01C90181319742AA
:1014D000A105B10508F4BAC3F50186859785A089F1
:1014E000B189A3019201281B390B4A0B5B0BDA016E
:1014F000C901813D9740A105B10508F4A7C3C12CDE
:10150000D12CE12CF12C00E010E020E030E040E0B4
:1015100050E066E0C5010E94360636C0892B09F00E
:1015200068C0F50186859785A089B1899920B1F0B9
:10153000481A590A6A0A7B0AF1ED4F16F7E05F066E
:101540006104710408F482C3D501ED91FC911197F7
:1015500012825B961C921E925A9749C0A301920177
:10156000281B390B4A0B5B0BDA01C90189389341FF
:10157000A105B105F0F180819181FC0112820E94E8
:101580005607982E811108C0D5011E964D925D9286
:101590006D927C9251975AC388EE93E0A0E0B0E040
:1015A000F501828B938BA48BB58B81E090E0978BB8
:1015B000868B22813381F90101900020E9F7319770
:1015C0008F01021B130BC12CD12CE12CF12C41E01B
:1015D00050E062E0C5010E943606F50182859385E0
:1015E000A485B58586879787A08BB18B2FC3912C57
:1015F0002DC3992493942AC3288D398D2130310528
:1016000009F01CCF4430510521F0483C510509F048
:10161000F8C2D5011E966D937D938D939C9351973F
:1016200081E090E05B969C938E935A97C5010E944F
:10163000C00E0E946F0EE2C2F50180819181F1E03F
:10164000EF16FF0618F00E945607D8C26DB67EB698
:1016500097012F5F3F4F4DB75EB7421B530B0FB63D
:10166000F8945EBF0FBE4DBF0DB71EB70F5F1F4F83
:10167000A701B8010E94F205E816F90609F0B5C203
:10168000EA8DFB8DE00FF11F10820E94DC04D50172
:1016900016966D937D938D939C9319978F898131C5
:1016A00009F48FC240F48630D9F08F3009F464C059
:1016B000823051F094C2893211F1873309F497C214
:1016C000843109F08CC258C0F501828D938D892B2D
:1016D00039F481E090E0938F828FC5010E94C00EA3
:1016E000488D598DC12CD12CE12CF12C08EC10E047
:1016F00020E030E060E0C5010E94360678C2D501E6
:1017000014968D919C911597892B39F480E290E085
:101710000E942113F501958384838A8D9B8D1A8302
:101720000983800F911F0817190708F05EC240E275
:1017300050E0B801D50114968D919C9115970E94A7
:101740006519CE0101960E94FD0ED501ED91FC9127
:101750001197128216968D919D910D90BC91A02D9E
:1017600088589341A109B109F50186879787A08B15
:10177000B18B138E128E3BC2888D998DD5015996EF
:101780009C938E935897CA8CDB8C1D8F0C8F78019D
:10179000EC0CFD1C0E151F0508F00FC2F80140806F
:1017A0005180CE014C960E94FD0EDC018D919C91E2
:1017B0008E159F0508F001C28C8D9D8DFC01208146
:1017C000213459F401960E944E14863091050CF094
:1017D0008DC13EE0832E880E03C00E944E14882ED9
:1017E000F6E74F16F2E75F0609F488C198F431E690
:1017F000431632E7530609F4C6C044E6441642E7EE
:10180000540609F45FC050E745165DE6550609F039
:10181000C3C11BC084E6481687E7580609F49BC07D
:10182000A6E74A16A7E75A0609F48BC1B1E64B169C
:10183000B7E75B0609F0B0C1EFC030E743163DE6FD
:10184000530609F0A9C188248A948C8D9D8D8E152C
:101850009F0508F0B2C1CE014C960E94FD0E0C8D82
:101860001D8D60E771E0C8010E945C19892B11F49D
:1018700060E018C063E771E0C8010E945C19892B21
:1018800009F4E2C167E771E0C8010E945C19892B85
:1018900009F4DAC161E871E0C8010E945C19892B82
:1018A00021F462E0882D0E947B04CE014C960E94B8
:1018B000FD0ECBCF24E6421622E7520609F0BDCF3B
:1018C00088248A94CE0101969A8B898B1C8A1B8A64
:1018D00080E190E09E8B8D8B6BE771E0CE014196AD
:1018E0000E946707082D10E0B801CE0141960E94C2
:1018F0008F07F801E350FE4F8491F801E754FD4F44
:10190000F490F801EB55FD4F0491002399F08111FB
:101910000E94CC03E02FF0E0EE0FFF1FE556FD4FD5
:10192000A591B491EC91FE2261E070E009F05AC0FB
:1019300060E058C060E070E055C0E7E74E16E2E7AF
:101940005E0608F462C144E6441647E7540609F00F
:10195000F0C088248A94CE014C960E94FD0EFC01B2
:10196000808191818E159F0508F027C161E0882D47
:101970000E947B048C8D9D8D0E944E1461E0892B0A
:1019800009F06AC0B1C0CE0101969A8B898B1C8A7E
:101990001B8A80E190E09E8B8D8B6EE771E0CE011B
:1019A00041960E946707682D70E0CE0141960E9423
:1019B0008F07FDE0F81510F422EF820E882D877056
:1019C000806480937C0080917A00806480937A00A8
:1019D00080917A0086FDFCCF60917800809179003B
:1019E00070E0782BCE0141960E948F070B891C89ED
:1019F0000150110929893A89C12CD12CE12CF12CF3
:101A000040E050E064E1D6C081E6481687E758061A
:101A100009F0C2C088248A94CE014C960E94FD0E23
:101A2000DC018D919C918E159F0508F0C6C061E088
:101A3000882D0E947B048C8D9D8D0E944E148C01FC
:101A400061E0882D0E947B040115110509F44CC04A
:101A50000F3F110529F461E0882D0E94F503ADC008
:101A6000E82DF0E0E350FE4FE491E330F9F048F464
:101A7000E130B9F0E230A1F584B5806284BD08BDE3
:101A80009CC0E730E9F0E83019F1E43049F5809185
:101A9000800080628093800010938B0000938A0006
:101AA0008CC084B5806884BD07BD87C080918000EC
:101AB00080688093800010938900009388007DC027
:101AC0008091B00080688093B0000093B30075C02F
:101AD0008091B00080628093B0000093B4006DC02C
:101AE000003811050CF0B7CF60E0B6CFB6E74B1663
:101AF000B2E75B0609F021CF88248A948982BFE18E
:101B0000B81508F45AC0E82DF0E0EE0FFF1FEF5EA5
:101B1000FD4F259134912115310509F44EC0E2E0C5
:101B20002A393E0709F449C0CE010196F901099509
:101B300044C056E7451657E7550609F065CF882497
:101B40008A94CE014C960E94FD0E8C8D9D8D081BB3
:101B5000190BC00ED11E9A838983DC82CB82DE8270
:101B6000CD82898AFFE1F81540F1E82DF0E0EE0F13
:101B7000FF1FEF5AFD4F2591349121153105E9F0F2
:101B800042E029393407C9F0BE016F5F7F4FCE01B3
:101B90004196F901099511C0D50158964D915C9176
:101BA0005997C12CD12CE12CF12C02E010E020E05F
:101BB00030E060E0C5010E943606F501118E108EFE
:101BC00016C08A8D9B8D1A830983800F911F081779
:101BD000190768F4CE0101960E94FD0E08C0D501D8
:101BE0008D919C910E94560702C080E001C0892D12
:101BF0000FB6F8947EBE0FBE6DBE01C0892D811157
:101C000021CCD501ED91FC914DCCF1E64F16F2E7D8
:101C10005F0609F04FCECE0101969A8B898B1C8A04
:101C20001B8A80E190E09E8B8D8B6EE771E0CE0188
:101C300041960E9467076FEF70E0CE0141960E94C7
:101C40008F0788248A94B8CE61E02CCE892D0FB6F8
:101C5000F8943EBE0FBE2DBE6D960FB6F894DEBF53
:101C60000FBECDBFDF91CF911F910F91FF90EF90ED
:101C7000DF90CF90BF90AF909F908F907F906F90AC
:101C80005F904F903F902F9008950F931F93CF93A5
:101C9000DF938C01C0E0D0E0F801EC0FFD1F6491F0
:101CA000662371F0E0914305F09144050190F081C5
:101CB000E02D83E495E00995892B11F02196ECCF76
:101CC00042E050E064E871E083E495E00E94930113
:101CD0008C0F9D1FDF91CF911F910F9108950C9450
:101CE000B704CF92DF92EF92FF920F931F93E82FEA
:101CF000F92F05C0015011092109310961F19081C5
:101D000096239417B9F305C001501109210931092F
:101D100011F1908196239413F7CFC12CD12CE12C93
:101D2000F12C0AC08FEFC81AD80AE80AF80A0C1575
:101D30001D052E053F0579F080818623841791F3D8
:101D40006C2D7D2D8E2D9F2D1F910F91FF90EF906B
:101D5000DF90CF90089560E070E080E090E01F9108
:101D60000F91FF90EF90DF90CF9008958EE391E078
:101D700090938A058093890589E895E00C94410346
:101D8000AF92BF92CF92DF92EF92FF920F931F9389
:101D9000CF93DF93CDB7DEB7C556D1090FB6F89410
:101DA000DEBF0FBECDBF5C0145E650E062E671E0EC
:101DB000CE0101960E946C14C12CD12CE12CF12C87
:101DC00005E610E09E012F5F3F4F40E050E061E1EB
:101DD000C5010E943606CB59DF4F0FB6F894DEBF1F
:101DE0000FBECDBFDF91CF911F910F91FF90EF906C
:101DF000DF90CF90BF90AF900895DC01ED91FC9102
:101E0000119701900020E9F7ED93FC930895CF938B
:101E1000DF93CDB7DEB7C75AD1090FB6F894DEBF4E
:101E20000FBECDBF789484B5826084BD84B58160D7
:101E300084BD85B5826085BD85B5816085BD809195
:101E40006E00816080936E0010928100809181000D
:101E50008260809381008091810081608093810005
:101E6000809180008160809380008091B1008460C7
:101E70008093B1008091B00081608093B000809128
:101E80007A00846080937A0080917A0082608093E7
:101E90007A0080917A00816080937A0080917A0044
:101EA000806880937A001092C1001092A40510926D
:101EB000A3051092A2051092A1051092A005109200
:101EC0009F058DE991E09093A6058093A5059091DB
:101ED0009505963108F057C02DEB30E03093A00502
:101EE00020939F052BE931E03093A2052093A105B3
:101EF0002CE231E03093A4052093A30520916800E3
:101F0000983050F031E09E3008F430E081E001C0BC
:101F1000880F3A95EAF701C084E0822B809368002D
:101F2000983038F09E3040F0963148F020E030E0B4
:101F300008C02DE630E005C02BE630E002C02CE6FC
:101F400030E030939D0520939C05983030F481E07B
:101F500001C0880F9A95EAF70EC0292F30E09E3015
:101F600018F42850310902C02E50310981E001C017
:101F7000880F2A95EAF780939E058091A505909198
:101F8000A6050197F1F78091A3059091A405892BEF
:101F900021F18091D3019091D40125E089389207F5
:101FA000E1F0009711F00E9441038091A7058E7F18
:101FB0008093A7051092D2011092D10189E895E093
:101FC0009093D4018093D301E0919C05F0919D05FD
:101FD000908180919E05892B8083E091E501F091AD
:101FE000E60182E08083E091E101F091E20110825C
:101FF000E091E301F091E4018FEC80831092ED0118
:10200000E091E901F091EA0186E08083E091E70147
:10201000F091E801808180618083E091E701F09197
:10202000E801808188608083E091E701F091E80118
:10203000808180688083E091E701F091E8018081F0
:102040008F7D808380E091E09093AB058093AA051B
:10205000E091A805F091A90585ED91E09183808339
:10206000E091A805F091A90512821092C305109283
:10207000C2050E94DC046B017C018091C205909135
:10208000C305019791F00E94DC04DC01CB018C199F
:102090009D09AE09BF0980379741A105B10528F414
:1020A00088EA95E00E94B309E8CF88EA95E00E94AB
:1020B000B3098091C2059091C305019789F680EE1E
:1020C00091E00E94450E82ED91E00E94450E8091C4
:1020D000F4049091F50497FF17C00E94DC04E4EB30
:1020E000F3E024E1DF01322F1D923A95E9F7608396
:1020F0007183828393837496A4E0E43FFA0791F797
:102100001092F5041092F4048091F4049091F50477
:102110004097DCF5E4EBF3E080E090E0248135814A
:10212000232B31F00196749680319105B9F72DC0BB
:1021300024E1289F8001299F100D11240C541C4F6D
:102140008FE190E0A0E0B0E0F80181879287A3875B
:10215000B48784EB97E09583848317821682108678
:102160001686158681E0818B0E94DC04D8016D9370
:102170007D938D939C9313978091F4049091F50433
:1021800001969093F5048093F40462E082E00E944B
:102190007B040091420510E0CE010196CE55DF4F41
:1021A00099838883C25AD040CC55DF4F1982188258
:1021B000C45AD04080E890E0CA55DF4F99838883A5
:1021C000C65AD04064E671E0CE018E559F4F0E9402
:1021D0006707B801CE018E559F4F0E948F0761E0BF
:1021E00070E0CE018E559F4F0E948F078E010F57D2
:1021F0001F4F27E045E061E07CE38AE291E40E9422
:102200000113B801CE018E559F4F0E94670727E04A
:1022100045E061ED79E985E792EC0E940113B80190
:10222000CE018E559F4F0E94670767E671E0CE0191
:102230008E559F4F0E946707CC55DF4F088119814B
:10224000C45AD04001501109CE55DF4F2881398141
:10225000C25AD040C12CD12CE12CF12C40E050E0EE
:1022600064E188EA95E00E943606EE24E394F12CBE
:1022700092E0C92ED12C24E1322E88EA95E00E940A
:10228000B3090E94DC04AB01BC0104EB13E0F801CC
:10229000138A128A84819581892BA9F18081918189
:1022A000A281B38141845284638474844A015B01B6
:1022B000881A990AAA0ABB0A84149504A604B704CA
:1022C00010F1840D951DA61DB71D80839183A283F7
:1022D000B38381898823B9F0258536852115310599
:1022E00019F4F38AE28A0FC08785908982179307D1
:1022F00050F4F38AE28A0196908B878782179307BE
:1023000010F0D38AC28A7496B4E0E43FFB0709F068
:10231000BFCFF80182899389892B99F18085048048
:10232000F581E02D882339F0D80116968D919C9186
:102330001797099501C00995F80182899389029739
:1023400001F58091F4049091F504892BD1F08481FA
:102350009581892BB1F0D801E32D1D92EA95E9F71B
:102360000E94DC04D8016D937D938D939C93139709
:102370008091F4049091F50401979093F504809373
:10238000F4040C5E1F4FB4E0043F1B0711F60E94DB
:102390008F0273CF1092D8011092D70188EE93E08C
:1023A000A0E0B0E08093D9019093DA01A093DB0123
:1023B000B093DC012CE231E03093D6012093D501BB
:1023C00025EC30E03093E2012093E10124EC30E091
:1023D0003093E4012093E30120EC30E03093E601F8
:1023E0002093E50121EC30E03093E8012093E701F0
:1023F00022EC30E03093EA012093E90126EC30E052
:102400003093EC012093EB011092EE011092EF015A
:102410001092F0011092F1011092C5051092C405BE
:102420001092C60524EC35E03093A9052093A80549
:102430001092AB051092AA051092AD051092AC0552
:102440001092AE051092AF051092B0051092B10532
:102450001092B2051092B3051092B4051092B50512
:102460001092B6051092B7051092B8051092B905F2
:102470001092BA051092BB051092BC051092BD05D2
:102480001092BF051092BE051092C1051092C005B2
:102490001092C3051092C20510928C0510928B0504
:1024A00080938D0590938E05A0938F05B093900532
:1024B0008EE391E090938A05809389051092A005A0
:1024C00010929F051092A2051092A1051092A405EA
:1024D0001092A3051092A6051092A5056091A7057C
:1024E0006E7F6D7F6093A7056695617081E06827B8
:1024F0008BE00E94F50361E08BE00E947B04E4EC3A
:10250000F2E0E491E0939905E0EBF2E0E491F0E091
:10251000EE0FFF1FEF56FD4F8591949190939B0511
:1025200080939A0560E08AE00E947B048091A70571
:1025300081FD04C061E08AE00E94F5038AE0809397
:102540009505E3ECF2E0E491E0939605EFEAF2E022
:10255000E491F0E0EE0FFF1FE556FD4F8591949159
:10256000909398058093970581E08093470510929A
:1025700046051092450580E591E0909344058093CF
:1025800043051092880582E08093420588E195E03A
:102590000E94AC0585E090E090933B0580933A055E
:1025A00086E090E090933D0580933C0587E090E0C5
:1025B00090933F0580933E0588E090E0909341051D
:1025C0008093400561E085E00E947B0461E086E045
:1025D0000E947B0461E087E00E947B0461E088E068
:1025E0000E947B0486EF94E00E94AC058FEF9FEF82
:1025F0009093F5048093F4049093B3038093B20313
:102600000895EF920F931F93CF93DF93E80147FD57
:1026100002C034E001C034E1E42F440FFF0BF7FFA8
:1026200003C0F195E195F109E32E022F2E2FAE01A3
:102630000E94A214CE01DF91CF911F910F91EF90D4
:102640000895CF93DF938230910510F482E090E0FB
:10265000E091C905F091CA0520E030E0C0E0D0E08B
:10266000309711F14081518148175907C0F0481740
:10267000590761F482819381209719F09B838A83A3
:102680002BC09093CA058093C90526C0211531053A
:1026900019F04217530718F49A01BE01DF01EF0148
:1026A0000280F381E02DDCCF2115310509F1281BD3
:1026B000390B2430310590F412968D919C9113972B
:1026C0006115710521F0FB019383828304C090930F
:1026D000CA058093C905FD01329644C0FD01E20F91
:1026E000F31F81939193225031092D933C933AC06B
:1026F0002091C7053091C805232B41F42091240176
:10270000309125013093C8052093C70520912201FF
:10271000309123012115310541F42DB73EB7409189
:10272000260150912701241B350BE091C705F0913C
:10273000C805E217F307A0F42E1B3F0B2817390733
:1027400078F0AC014E5F5F4F2417350748F04E0F0D
:102750005F1F5093C8054093C7058193919302C0B2
:10276000E0E0F0E0CF01DF91CF9108950F931F9348
:10277000CF93DF93009709F48CC0FC01329713824A
:1027800012820091C9051091CA050115110581F445
:1027900020813181820F931F2091C7053091C80598
:1027A0002817390779F5F093C805E093C70571C07C
:1027B000D80140E050E0AE17BF0750F412962D91BB
:1027C0003C911397AD012115310509F1D901F3CFE2
:1027D0009D01DA013383228360817181860F971F07
:1027E0008217930769F4EC0128813981260F371F7E
:1027F0002E5F3F4F318320838A819B819383828325
:10280000452B29F4F093CA05E093C90542C01396FD
:10281000FC93EE931297ED01499159919E01240F7B
:10282000351FE217F30771F480819181840F951FA2
:10283000029611969C938E938281938113969C931A
:102840008E931297E0E0F0E0D80112968D919C9162
:102850001397009719F0F8018C01F6CF8D919C9198
:1028600098012E5F3F4F820F931F2091C705309133
:10287000C8052817390769F4309729F41092CA055A
:102880001092C90502C0138212821093C8050093EA
:10289000C705DF91CF911F910F910895FC01882703
:1028A0009927E89421912032E9F3293010F02E3055
:1028B000C8F32B3241F02D3239F4689404C00E94E1
:1028C0008014820F911D219120532A30C0F31EF4F1
:1028D000909581959F4F0895FB01DC0102C0059002
:1028E0000D9241505040D8F70895BB274A3031F43B
:1028F000992322F4BDE2909581959F4F0C94891401
:102900007AE0979F902D879F802D910D1124089537
:10291000BB27FB015527AA27880F991FAA1FA417B9
:1029200010F0A41B83955051B9F7A05DAA3308F0AD
:10293000A95DA193009779F7B111B1931192CB01E1
:102940000C9408174F925F926F927F929F92AF9272
:10295000BF92CF92DF92EF92FF920F931F93CF938C
:10296000DF93CDB7DEB729970FB6F894DEBF0FBE61
:10297000CDBF6A01122FB02E2BE3201720F0FF24C9
:10298000F394F00E02C0BCE3FB2E0F2D27E0AE0146
:102990004F5F5F4F0E943016AC018981982F99706C
:1029A000913031F0E1FC06C0E0FE06C090E205C0C7
:1029B0009DE203C09BE201C090E0EE2DE07183FF39
:1029C0003CC0911102C083E001C084E0811718F47B
:1029D000212F281B01C020E0E1110BC0F601822F3E
:1029E00030E2882319F031938150FBCFC20ED11C05
:1029F00020E0992329F0D6019C93F60131966F01CE
:102A0000C6010396E2FE0AC03EE4D6013C9341E4CF
:102A100011964C93119712963C9306C03EE6F60130
:102A2000308341E641833283FC01322F40E233237D
:102A300009F442C041933150FACF82FF44C0911152
:102A400002C083E001C084E0811718F4212F281B05
:102A500001C020E0E1110BC0F601822F30E2882393
:102A600019F031938150FBCFC20ED11C20E0992385
:102A700029F0D6019C93F60131966F01C6010396A9
:102A8000E2FE0BC039E4D6013C933EE411963C9340
:102A9000119736E412963C9307C039E6F60130836D
:102AA0003EE6318336E63283FC01322F40E23323A7
:102AB00019F041933150FBCFFC01E20FF11D108260
:102AC0008EEF9FEFB7C0F1E0911101C0F0E06F2FE2
:102AD00070E01416150624F49A012F5F3F4F02C0D0
:102AE00021E030E0260F371FBB2029F06B2D70E06E
:102AF0006F5F7F4F02C060E070E0260F371F612FCD
:102B000070E0261737071CF4121B212F01C020E0AC
:102B10003E2D387159F4D601322F60E2332319F07B
:102B20006D933150FBCFC20ED11C20E0FF2331F05A
:102B3000D6019C93B6016F5F7F4F6B01E1110BC013
:102B4000F601922F30E3992319F031939150FBCF86
:102B5000C20ED11C20E09F2D940F3A81782F707106
:102B6000A72E84FF03C0313309F49150191624F4C1
:102B7000993018F098E001C091E0E42F852F57FFBD
:102B800002C0E0E080E06E2F782FE0E0F0E0AEE2FF
:102B90009A2E3A01691A71082A01461A570A0B2D12
:102BA00010E01195019511096F3F8FEF780729F417
:102BB000D6019C92C60101966C014617570784F016
:102BC000661677066CF47F01E40CF51CA1E0B0E01A
:102BD000AC0FBD1FEA0EFB1ED7011196BC9002C0C0
:102BE00090E3B92E615071093196C60101967C01BE
:102BF0006017710724F0D601BC926C01D5CF641721
:102C0000750741F4363320F4353321F4A11002C0A6
:102C100081E3B82EF601B082F701822F90E288237B
:102C200019F091938150FBCFF701E20FF11D108253
:102C300080E090E029960FB6F894DEBF0FBECDBFBE
:102C4000DF91CF911F910F91FF90EF90DF90CF9088
:102C5000BF90AF909F907F906F905F904F9008953E
:102C6000283008F027E03327DA01990F311D87FD5E
:102C7000916000966105710539F432602E5F3D93D5
:102C800030E32A95E1F708959F3F30F080387105D1
:102C9000610509F03C5F3C5F3D93913008F080682E
:102CA000911DDF93CF931F930F93FF92EF92192FF4
:102CB000987F9695E92F96959695E90FFF27EE5305
:102CC000FF4F99273327EE24FF24A701E701059042
:102CD0000894079428F4360FE71EF81E491F511D6B
:102CE000660F771F881F991F0694A1F70590079418
:102CF00028F4E70EF81E491F561FC11D770F881FC5
:102D0000991F661F0694A1F70590079428F4F80E02
:102D1000491F561FC71FD11D880F991F661F771F98
:102D20000694A1F70590079420F4490F561FC71F7A
:102D3000D81F990F661F771F881F0694A9F78491E3
:102D40001095177041F0D695C79557954795F7940C
:102D5000E7941A95C1F7E8E6F0E0689415901591AC
:102D600035916591959105907FE27395E118F10A8F
:102D7000430B560BC90BD009C0F7E10CF11E431FE2
:102D8000561FC91FD01D7EF4703311F48A95E6CF0B
:102D9000E894015030F0080F0AF40027021708F4F5
:102DA000202F2395022F7A3328F079E37D932A95FB
:102DB000E9F710C07D932A9589F606949795679553
:102DC000379517951794E118F10A430B560BC90B69
:102DD000D00998F023957E9173957A3308F070E3CB
:102DE0007C932013B8F77E9170617D9330F08395CA
:102DF00071E37D9370E32A95E1F71124EF90FF9042
:102E00000F911F91CF91DF91992787FD909508959C
:102E1000DC01FC01672F71917723E1F7329704C041
:102E20007C916D9370836291AE17BF07C8F30895CC
:102E30000E945A1708F481E00895E89409C097FBAE
:102E40003EF490958095709561957F4F8F4F9F4F81
:102E50009923A9F0F92F96E9BB279395F6958795C5
:102E600077956795B795F111F8CFFAF4BB0F11F488
:102E700060FF1BC06F5F7F4F8F4F9F4F16C088232F
:102E800011F096E911C0772321F09EE8872F762F65
:102E900005C0662371F096E8862F70E060E02AF0A6
:102EA0009A95660F771F881FDAF7880F9695879592
:102EB00097F90895990F0008550FAA0BE0E8FEEF67
:102EC00016161706E807F907C0F012161306E407EE
:102ED000F50798F0621B730B840B950B39F40A26E7
:102EE00061F0232B242B252B21F408950A2609F4C5
:102EF000A140A6958FEF811D811D08950E94911715
:102F00000C9402180E94F41738F00E94FB1720F06E
:102F1000952311F00C94EB170C94F11711240C94D9
:102F200036180E94131870F3959FC1F3950F50E067
:102F3000551F629FF001729FBB27F00DB11D639F6B
:102F4000AA27F00DB11DAA1F649F6627B00DA11D11
:102F5000661F829F2227B00DA11D621F739FB00DB7
:102F6000A11D621F839FA00D611D221F749F332727
:102F7000A00D611D231F849F600D211D822F762FC0
:102F80006A2F11249F5750409AF0F1F088234AF09D
:102F9000EE0FFF1FBB1F661F771F881F9150504009
:102FA000A9F79E3F510580F00C94EB170C9436184E
:102FB0005F3FE4F3983ED4F3869577956795B79590
:102FC000F795E7959F5FC1F7FE2B880F911D9695AA
:102FD000879597F9089597F99F6780E870E060E01A
:102FE00008959FEF80EC089500240A9416161706A2
:102FF00018060906089500240A94121613061406EA
:1030000005060895092E0394000C11F4882352F04C
:10301000BB0F40F4BF2B11F460FF04C06F5F7F4F04
:103020008F4F9F4F089557FD9058440F551F59F0EB
:103030005F3F71F04795880F97FB991F61F09F3FA5
:1030400079F087950895121613061406551FF2CFCE
:103050004695F1DF08C0161617061806991FF1CF1E
:1030600086957105610508940895E894BB27662745
:103070007727CB0197F908955058BB27AA270E94BC
:1030800054180C9402180E94F41738F00E94FB1791
:1030900020F039F49F3F19F426F40C94F1170EF444
:1030A000E095E7FB0C94EB17E92F0E94131858F3F7
:1030B000BA17620773078407950720F079F4A6F51D
:1030C0000C9435180EF4E0950B2EBA2FA02D0B01A1
:1030D000B90190010C01CA01A0011124FF27591B5D
:1030E00099F0593F50F4503E68F11A16F040A22F63
:1030F000232F342F4427585FF3CF469537952795D4
:10310000A795F0405395C9F77EF41F16BA0B620BD2
:10311000730B840BBAF09150A1F0FF0FBB1F661F19
:10312000771F881FC2F70EC0BA0F621F731F841F5C
:1031300048F4879577956795B795F7959E3F08F082
:10314000B0CF9395880F08F09927EE0F9795879544
:1031500008950E94BD180C9402180E94FB1758F0A5
:103160000E94F41740F029F45F3F29F00C94EB170C
:1031700051110C9436180C94F1170E94131868F32F
:103180009923B1F3552391F3951B550BBB27AA2720
:1031900062177307840738F09F5F5F4F220F331F5A
:1031A000441FAA1FA9F335D00E2E3AF0E0E832D022
:1031B00091505040E695001CCAF72BD0FE2F29D025
:1031C000660F771F881FBB1F261737074807AB07F7
:1031D000B0E809F0BB0B802DBF01FF2793585F4F6C
:1031E0003AF09E3F510578F00C94EB170C9436188A
:1031F0005F3FE4F3983ED4F3869577956795B7954E
:10320000F7959F5FC9F7880F911D9695879597F958
:103210000895E1E0660F771F881FBB1F62177307D1
:103220008407BA0720F0621B730B840BBA0BEE1FE6
:1032300088F7E09508950E945A1708F48FEF0895D3
:1032400097FB072E16F4009407D077FD09D00E9453
:10325000341907FC05D03EF4909581959F4F089551
:10326000709561957F4F0895AA1BBB1B51E107C064
:10327000AA1FBB1FA617B70710F0A61BB70B881F06
:10328000991F5A95A9F780959095BC01CD01089595
:10329000EE0FFF1F0590F491E02D099481E090E07E
:1032A000F8940C947419FB01DC0102C001900D929A
:1032B00041505040D8F70895FB01DC018D910190F9
:1032C00080190110D9F3990B0895FB01DC014150DD
:1032D000504048F001900D920020C9F701C01D92A6
:1032E00041505040E0F7089511E0C8E6D1E004C035
:1032F000FE010E9448192196C936D107C9F7F894F2
:02330000FFCFFD
:103302003039333762623033333539343438353219
:103312003930646164616431666631653365366390
:1033220020000000CB05800000000000260293016F
:10333200BE016D02EF01CD01E10100000000B40207
:1033420093016F03B302080320039B0200000000F5
:10335200570393016F035E0900000000720393019B
:103362006F036E037677005557495F5352435F628E
:10337200696E006F75740070776D00647700617715
:08338200007075000D0A000047
:107E0000112484B714BE81FFF0D085E080938100F7
:107E100082E08093C00088E18093C10086E0809377
:107E2000C20080E18093C4008EE0C9D0259A86E02C
:107E300020E33CEF91E0309385002093840096BBD3
:107E4000B09BFECF1D9AA8958150A9F7CC24DD24C4
:107E500088248394B5E0AB2EA1E19A2EF3E0BF2EE7
:107E6000A2D0813461F49FD0082FAFD0023811F036
:107E7000013811F484E001C083E08DD089C08234E0
:107E800011F484E103C0853419F485E0A6D080C0E4
:107E9000853579F488D0E82EFF2485D0082F10E0AE
:107EA000102F00270E291F29000F111F8ED06801E7
:107EB0006FC0863521F484E090D080E0DECF843638
:107EC00009F040C070D06FD0082F6DD080E0C81688
:107ED00080E7D80618F4F601B7BEE895C0E0D1E017
:107EE00062D089930C17E1F7F0E0CF16F0E7DF06D8
:107EF00018F0F601B7BEE89568D007B600FCFDCFD4
:107F0000A601A0E0B1E02C9130E011968C91119780
:107F100090E0982F8827822B932B1296FA010C0160
:107F200087BEE89511244E5F5F4FF1E0A038BF0790
:107F300051F7F601A7BEE89507B600FCFDCF97BE46
:107F4000E89526C08437B1F42ED02DD0F82E2BD052
:107F50003CD0F601EF2C8F010F5F1F4F84911BD097
:107F6000EA94F801C1F70894C11CD11CFA94CF0C13
:107F7000D11C0EC0853739F428D08EE10CD085E9AC
:107F80000AD08FE07ACF813511F488E018D01DD067
:107F900080E101D065CF982F8091C00085FFFCCF94
:107FA0009093C60008958091C00087FFFCCF809118
:107FB000C00084FD01C0A8958091C6000895E0E648
:107FC000F0E098E1908380830895EDDF803219F02E
:107FD00088E0F5DFFFCF84E1DECF1F93182FE3DFCA
:107FE0001150E9F7F2DF1F91089580E0E8DFEE27F6
:047FF000FF270994CA
:027FFE00040479
:0400000300007E007B
:00000001FF