:100000000C9469010C9491010C9491010C94AB0235
:100010000C94AB020C94AB020C9491010C949101E2
:100020000C9491010C9491010C9491010C94910108
:100030000C9491010C9491010C9491010C949101F8
:100040000C948F0C0C9491010C94970B0C94710BE5
:100050000C9491010C9491010C9491010C949101D8
:100060000C9491010C94910100407A10F35A00A075
:10007000724E18090010A5D4E80000E87648170071
:1000800000E40B54020000CA9A3B000000E1F505B1
:10009000000080969800000040420F000000A086FB
:1000A00001000000102700000000E803000000002D
:1000B0006400000000000A000000000001000000D1
:1000C00000002C76D888DC674F0823DFC1DFAE59EB
:1000D000E1B1B796E5E3E453C63AE651997696E87E
:1000E000E6C28426EB898C9B62ED407C6FFCEFBC02
:1000F0009C9F40F2BAA56FA5F490055A2AF75C932D
:100100006B6CF9676DC11BFCE0E40D47FEF520E662
:10011000B500D0ED902E0300943577050080841E45
:10012000080000204E0A000000C80C333333330FA0
:10013000986E12831141EF8D2114893BE65516CF3D
:10014000FEE6DB18D1844B381BF77C1D901DA4BB49
:10015000E424203284725E228100C9F124ECA1E5FE
:100160003D2776657200302E342E3800682D62658A
:10017000617400313000627566662D696E0032353B
:1001800036006465760041726475696E6F20556E45
:100190006F006370750041546D656761333238508C
:1001A00000636F6E0053747265616D006275696CF7
:1001B00064004E6F762032372032303137203130B4
:1001C0003A30363A303200000000000024002700A8
:1001D0002A002D2D2D2D2D2D2D2D2D2D2D2D2D00AC
:1001E000426C796E6B2076302E342E383A2044657E
:1001F0007669636520737461727465640000000041
:1002000008000201000003040700000000000000D5
:10021000009301930193019301930193019301933F
:10022000019301930193019301930193019301932E
:10023000019301930193019301930193019301931E
:10024000019301930193019301930193019301930E
:10025000017B0A7B0A7B0A7B0A7B0A7B0A7B0A7B7F
:100260000A7B0A7B0A7B0A7B0A7B0A7B0A7B0A7B66
:100270000A7B0A7B0A7B0A7B0A7B0A7B0A7B0A7B56
:100280000A7B0A7B0A7B0A7B0A7B0A7B0A7B0A7B46
:100290000A00000000250028002B000000000023B9
:1002A00000260029000404040404040404020202D9
:1002B00002020203030303030301020408102040A7
:1002C0008001020408102001020408102000081513
:1002D000051211241FBECFEFD8E0DEBFCDBF12E064
:1002E000A0E0B1E0EAE3FCE302C005900D92A0318A
:1002F000B107D9F726E0A0E1B2E001C01D92A33515
:10030000B207E1F711E0C8E6D1E004C02197FE0191
:100310000E94131DC736D107C9F70E9456120C94CC
:10032000101E0C9400000895209152023091530247
:100330002817390771F49091500280915102981753
:1003400041F0E0915002F0E0E05FFD4F808190E0ED
:1003500008958FEF9FEF089508951F93CF93DF9334
:10036000DC015C962D913C915D972115310539F4A6
:1003700081E090E013969C938E9312973DC0519626
:10038000ED91FC91529750969C915097892F8095B2
:100390001FB75E964C915E9741FB772770F941FD40
:1003A0006095F8944081772311F0492B01C04823D0
:1003B0004083E9012197F1F748E0508160FF02C0D6
:1003C000592B01C058235083E9012197F1F7669515
:1003D000415099F7772321F090818923808303C0CE
:1003E0008081982B90831FBF5C968D919C915D9727
:1003F0000197F1F721E030E0C901DF91CF911F9122
:10040000089520915202309153022817390771F450
:10041000809151022091500290E0805C9F4F821B9E
:10042000910960E470E00E94C91C089580E090E0AA
:100430000895209152023091530228173907B9F4D8
:100440009091500280915102981789F0E0915002EA
:10045000F0E0E05FFD4F80812091500230E02F5F9F
:100460003F4F2F7333272093500290E008958FEF72
:100470009FEF0895FC01EB5BFF4F308121E0230FDC
:100480002083FC01E30FF11D6583203438F0DC018B
:10049000ED91FC910680F781E02D099581E090E0D7
:1004A0000895089580E090E008950F931F93CF93EF
:1004B000DF93EC0160E088810E94F20B83E090E022
:1004C0000197F1F761E088810E94F20B83E290E0EE
:1004D0000197F1F760E088810E94F20B8A819B818D
:1004E0009927FC01E754FD4F6491FC01EB55FD4F4A
:1004F000E491F0E0EE0FFF1FE556FD4F85919491DA
:1005000000E412E42FE030E0462F0E94C011611594
:1005100071058105910549F0DC01CB010196A11D12
:10052000B11DBC01CD019F7003C060E070E0CB0144
:100530000E945D1A22E03BE247E05DE30E94BC1AA4
:1005400020E030E040E05FE30E94BC1ADF91CF91F1
:100550001F910F9108951F920F920FB60F921124C1
:100560002F933F934F935F936F937F938F939F93BB
:10057000AF93BF93EF93FF93E0915202F091530238
:10058000309709F451C0968DA685B785858591FF72
:1005900004C09C91892329F447C09C91892309F0C8
:1005A00043C0A389B4899C918589809589238C93C4
:1005B000868997890197F1F7608D718DA685B7853A
:1005C000558538E020E0CB010197F1F7822F90E0CC
:1005D00095958795282F4C91452309F02068315037
:1005E00091F7868D81FD20958091510290E00196D2
:1005F0008F73992730915002381749F0A09151021A
:10060000B0E0A05FBD4F2C938093510203C0868D54
:100610008160868F828D938D0197F1F7A389B489CC
:100620009C918589892B8C93FF91EF91BF91AF911C
:100630009F918F917F916F915F914F913F912F91FA
:100640000F900FBE0F901F901895E0915202F091FD
:100650005302E817F90769F4A389B4899C91858945
:10066000809589238C93109253021092520281E05C
:10067000089580E00895CF92DF92EF92FF920F935A
:100680001F93CF93DF93EC0183E090E099838883FD
:1006900084E090E09B838A8361E083E00E94220CE7
:1006A00060E08A810E94220C80E090E4ACE1B6EC2C
:1006B0008E839F83A887B98706E910E0CE010E9448
:1006C00055026B017C016A8B7B8B8C8B9D8B9B0114
:1006D000AC016E817F81888599850E94561A87FFBB
:1006E00004C0CE82DF82E886F9860150110931F715
:1006F000DF91CF911F910F91FF90EF90DF90CF90FE
:1007000008958F929F92AF92BF92CF92DF92EF9215
:10071000FF920F931F93CF93DF936C018B017B01AB
:10072000E40EF51E0E94830C4B015C01E801CE151E
:10073000DF0580F0CE01801B910BDF91CF911F91DF
:100740000F91FF90EF90DF90CF90BF90AF909F9070
:100750008F9008950E94830CDC01CB0188199909C0
:10076000AA09BB09803D9740A105B10518F7D6013C
:100770008D919C91DC01ED91FC910284F385E02D3B
:10078000099597FDD4CF8993D2CF4F925F926F9204
:100790007F929F92AF92BF92CF92DF92EF92FF92A1
:1007A0000F931F93CF93DF9300D000D01F92CDB74C
:1007B000DEB75C01962E390141155105E9F4DC01E3
:1007C00058964D915C91599741155105A9F456964B
:1007D0008D919C915797019629F057969C938E93F3
:1007E000569705C081E090E0F501978B868BD50187
:1007F00056964D915C915797D501ED91FC91828170
:10080000882309F4CDC0892D8D7F59F0B6E09B1661
:1008100041F0D5015A968D919C915B97019709F013
:10082000BFC06114710409F0B9C0412C512CB5E06E
:100830004B0E511CE114F10411F0C60102C080E01E
:1008400090E0480E591E99825427452754275B8310
:100850004A83C8018C0D9D1D9827892798279D8361
:100860008C8380819181DC01ED91FC910280F38188
:10087000E02D45E050E0BE016F5F7F4F09950E947B
:10088000D90C992071F10115110599F0D501ED915F
:10089000FC9180819181DC01ED91FC910280F381DA
:1008A000E02DA801B30109950B5F1F4F0E94D90CE1
:1008B00002C005E010E0C114D104A9F0D501ED910A
:1008C000FC9180819181DC01ED91FC910280F381AA
:1008D000E02DA601B70109950C0D1D1D0E94D90C34
:1008E00002C005E010E00415150541F0F501138E76
:1008F000128E0190F081E02D128252C00E94830C72
:10090000AB01BC01F50182899389A489B5898C0169
:100910009D01689414F836952795179507951694B8
:10092000D1F76C017D01C01AD10AE20AF30A9701DE
:10093000860182859385A485B5856A017B01C81AE5
:10094000D90AEA0AFB0AD701C601E5E0B695A795E0
:1009500097958795EA95D1F70097A105B10519F408
:100960008FEF9FEFDC01800F911FA21FB31FF501D6
:10097000828B938BA48BB58BC297A105B10530F404
:10098000138E128E0190F081E02D1282D5011A96FD
:100990004D935D936D937C931D9702C0280147CFC3
:1009A0000F900F900F900F900F90DF91CF911F91AC
:1009B0000F91FF90EF90DF90CF90BF90AF909F90FE
:1009C0007F906F905F904F900895CF93DF93EC01ED
:1009D00088819981DC01ED91FC910680F781E02D01
:1009E000099581E08A83DF91CF9108950F931F933A
:1009F000CF93DF93EC01FB0101900020E9F78F0119
:100A0000061B170B8A819B81A801480F591F2C8157
:100A10003D812417350768F028813981A801820FAC
:100A2000931F0E94E81D4A815B81400F511F5B8329
:100A30004A83DF91CF911F910F910895EF92FF921A
:100A40000F931F93CF93DF93CDB7DEB7A1970FB668
:100A5000F894DEBF0FBECDBF7C01CB01BA018E0181
:100A60000F5F1F4F27E045E00E943F16B801C70106
:100A70000E94F604A1960FB6F894DEBF0FBECDBF5C
:100A8000DF91CF911F910F91FF90EF9008950F93F9
:100A90001F93CF93DF93CDB7DEB762970FB6F8946D
:100AA000DEBF0FBECDBF8C01CB014AE0BE016F5F40
:100AB0007F4F0E94B317BE016F5F7F4FC8010E9436
:100AC000F60462960FB6F894DEBF0FBECDBFDF917D
:100AD000CF911F910F910895AF92BF92CF92DF9265
:100AE000EF92FF920F931F93CF93DF93CDB7DEB7B3
:100AF0002E970FB6F894DEBF0FBECDBF5C0125E484
:100B0000A20EB11CF501C080CC2051F17C01FC018A
:100B1000048110E0CE0101969A8789871C861B8686
:100B200088E090E09E878D8764E671E0CE010996AB
:100B30000E94F604B801CE0109960E944705D12C07
:100B4000F5E0EF0EF11C0B851C8529853A8540E008
:100B500050E064E180E396E00E94C503F501108255
:100B60002E960FB6F894DEBF0FBECDBFDF91CF91AA
:100B70001F910F91FF90EF90DF90CF90BF90AF90BB
:100B800008954F925F926F927F928F929F92AF9251
:100B9000BF92CF92DF92EF92FF920F931F93CF936A
:100BA000DF93CDB7DEB7C659D1090FB6F894DEBFD3
:100BB0000FBECDBF80EA95E00E9455024B015C015B
:100BC0006093B2057093B3058093B4059093B50517
:100BD000C090A605D090A705E090A805F090A905C3
:100BE0009B01AC01C701B6010E94B11BA701960190
:100BF0000E941E1C20E030E048EC52E40E94BC1A27
:100C00006B017C016093BE057093BF058093C005A6
:100C10009093C1054090AE055090AF056090B0052F
:100C20007090B10520E030E040E85FE3C301B2011D
:100C30000E94B21BCD56DF4F688379838A839B83E2
:100C4000C359D0409B01AC01C501B4010E94BF1C37
:100C500018169CF020E030E040E85FE3C301B201E9
:100C60000E94B11B2B013C019B01AC01C501B401E9
:100C70000E94BF1C18160CF060C020E030E048EC69
:100C800051E4C701B6010E94561A87FF04C061E013
:100C90008091C205A9C020E030E048EC51E4C701D2
:100CA000B6010E94BF1C181674F420E030E048E43E
:100CB00052E4C701B6010E94561A87FF04C061E0E2
:100CC0008091C40591C020E030E048E452E4C701BF
:100CD000B6010E94BF1C18169CF420E030E046E9E3
:100CE00052E4C701B6010E94561A87FF09C061E0AD
:100CF0008091C4050E94F20B61E08091C60574C02A
:100D000020E030E046E952E4C701B6010E94BF1C72
:100D100018160CF06BC061E08091C4050E94F20BC4
:100D200061E08091C6050E94F20B61E08091C805E8
:100D30000E94F20B61E082E057C0CD56DF4F288160
:100D400039814A815B81C359D040C501B4010E94F9
:100D5000561A87FD08C0A3019201C501B4010E9483
:100D6000561A87FF43C020E030E048EC51E4C70149
:100D7000B6010E94561A87FF06C060E08091C40544
:100D80000E94F20B14C020E030E048EC51E4C701AF
:100D9000B6010E94BF1C181684F420E030E048E43D
:100DA00052E4C701B6010E94561A87FF06C060E0F0
:100DB0008091C6050E94F20B14C020E030E048E4A8
:100DC00052E4C701B6010E94BF1C18167CF420E053
:100DD00030E046E952E4C701B6010E94561A87FF87
:100DE00005C060E08091C8050E94F20B8090BE05AE
:100DF0009090BF05A090C005B090C1058091B2054C
:100E00009091B305A091B405B091B5058093AE055E
:100E10009093AF05A093B005B093B105A5019401DF
:100E2000C501B4010E94C41C882319F087E691E033
:100E30001AC075016401E894F7F82FEF3FEF4FE710
:100E40005FE7C701B6010E94C41C81110FC02FEFDC
:100E50003FEF4FE75FE7C701B6010E94561A181629
:100E60002CF48BE691E00E94DB0C82C02FEF3FEF69
:100E70004FE75FE4C501B4010E94BF1C18161CF4C3
:100E80008FE691E0F0CF2FEF3FEF4FE75FECC5012A
:100E9000B4010E94561A87FDF3CF20E030E0A9018B
:100EA000C501B4010E94561A87FF0FC0E091CB051F
:100EB000F091CC050190F081E02D6DE28BEC95E096
:100EC0000995C501B401905802C0C501B4012AE0DA
:100ED00037ED43EA5BE30E94B21B2B013C010E9409
:100EE000901C6B017C010E945B1A9B01AC01C30149
:100EF000B2010E94B11B2B013C014AE0C701B601BF
:100F00000E94ED0CE091CB05F091CC050190F081B1
:100F1000E02D6EE28BEC95E0099520E030E040E2B8
:100F200051E4C301B2010E94BC1A2B013C010E9492
:100F3000901C6B01E12CF12C4AE0C701B6010E9424
:100F4000ED0CC701B6010E945B1A9B01AC01C30105
:100F5000B2010E94B11B20E030E040E251E40E9467
:100F6000BC1A0E94901C80E090E04AE00E94ED0CC8
:100F700083E791E00E94DB0C8BEC95E00E946C050E
:100F8000CE0101963C01CF57DF4F99838883C1582A
:100F9000D040CD57DF4F19821882C358D04080E827
:100FA00090E0CB57DF4F99838883C558D04064E6E3
:100FB00071E0CE018F579F4F0E94F60463E070E00E
:100FC000CE018F579F4F0E944705B501A401CE0166
:100FD0008F579F4F0E941E05CD57DF4F0881198103
:100FE000C358D04001501109CF57DF4F28813981B4
:100FF000C158D040C12CD12CE12CF12C40E050E064
:1010000064E180E396E00E94C50320E030E040EA1E
:1010100052E4C501B4010E94BF1C18160CF04DC16A
:1010200022E0B501A401CE0183579F4F0E94240BFB
:10103000C957DF4F19821882C758D040C757DF4FB2
:1010400019821882C958D040C557DF4F19821882BB
:10105000CB58D04065E170E0CE0189579F4F0E9488
:10106000A40A811106C0CE0189579F4F0E94F90A38
:1010700012C085E190E0C557DF4F99838883CB5834
:10108000D04066E771E0C957DF4F88819981C75822
:10109000D0400E94FA1DCF56DF4F48815981C15977
:1010A000D040C357DF4F68817981CD58D040CE0101
:1010B00089579F4F0E94CB0A811105C0CE018957E5
:1010C0009F4F0E94F90A6CE871E0CE0189579F4F4B
:1010D0000E940B0B8C01CF57DF4F79826882C15879
:1010E000D040CD57DF4F19821882C358D04080E8D6
:1010F00090E0CB57DF4F99838883C558D04060E993
:1011000071E0CE018F579F4F0E94F6046CEA71E0A8
:10111000CE018F579F4F0E94F604F80160817181C4
:10112000CE018F579F4F0E94F604CD57DF4F0881A5
:101130001981C358D04001501109CF57DF4F288182
:101140003981C158D040C12CD12CE12CF12C40E088
:1011500050E06DE080E396E00E94C503C957DF4F81
:1011600088819981C758D0400E94F416C357DF4F39
:1011700088819981CD58D0400E94F41622E0B501B3
:10118000A401CE0183579F4F0E94240BC957DF4F04
:1011900019821882C758D040C757DF4F198218826A
:1011A000C958D040C557DF4F19821882CB58D0405C
:1011B0006AE270E0CE0189579F4F0E94A40A811114
:1011C00006C0CE0189579F4F0E94F90A12C08AE2D9
:1011D00090E0C557DF4F99838883CB58D04061ECAE
:1011E00071E0C957DF4F88819981C758D0400E946C
:1011F000FA1DCF56DF4F48815981C159D040C3579E
:10120000DF4F68817981CD58D040CE0189579F4FFB
:101210000E94CB0A811105C0CE0189579F4F0E94C1
:10122000F90A6CEE71E0CE0189579F4F0E940B0BBB
:10123000CF57DF4F79826882C158D040CD57DF4FFA
:1012400019821882C358D04020E830E0CB57DF4FD6
:1012500039832883C558D040FC0160817181CE015B
:101260008F579F4F0E94F604CD57DF4F0881198199
:10127000C358D04001501109CF57DF4F2881398121
:10128000C158D040C12CD12CE12CF12C40E050E0D1
:101290006CE080E396E00E94C503C957DF4F888168
:1012A0009981C758D0400E94F416C357DF4F8881F8
:1012B0009981CD58D0400E94F416CA56DF4F0FB620
:1012C000F894DEBF0FBECDBFDF91CF911F910F917C
:1012D000FF90EF90DF90CF90BF90AF909F908F9056
:1012E0007F906F905F904F900895CF92DF92EF9232
:1012F000FF920F931F93CF93DF936C017A018B01C1
:10130000C0E0D0E0CE15DF0589F0D8016D918D01E8
:10131000D601ED91FC910190F081E02DC601099577
:10132000892B11F47E0102C02196ECCFC701DF9119
:10133000CF911F910F91FF90EF90DF90CF90089584
:10134000FC01538D448D252F30E0842F90E0821BCB
:10135000930B541710F0CF96089501970895FC0150
:10136000918D828D981761F0828DDF01A80FB11DDC
:101370005D968C91928D9F5F9F73928F90E0089500
:101380008FEF9FEF0895FC01918D828D981731F0BA
:10139000828DE80FF11D858D90E008958FEF9FEF0E
:1013A0000895FC01918D228D892F90E0805C9F4FE4
:1013B000821B91098F73992708958DE592E00E9411
:1013C000D10921E0892B09F420E0822F0895FC0146
:1013D000848DDF01A80FB11DA35ABF4F2C91848DBE
:1013E00090E001968F739927848FA689B7892C93F3
:1013F000A089B1898C9180648C93938D848D98138E
:1014000006C00288F389E02D80818F7D8083089556
:10141000EF92FF920F931F93CF93DF93EC0181E044
:10142000888F9B8D8C8D981305C0E889F989808100
:1014300085FD24C0F62E0B8D10E00F5F1F4F0F733C
:101440001127E02E8C8DE8120CC00FB607FCFACFE6
:10145000E889F989808185FFF5CFCE010E94E709EF
:10146000F1CF8B8DFE01E80FF11DE35AFF4FF082A3
:101470000B8FEA89FB898081806207C0EE89FF8932
:101480006083E889F98980818064808381E090E0CD
:10149000DF91CF911F910F91FF90EF900895CF931F
:1014A000DF93EC01888D8823C9F0EA89FB8980816C
:1014B00085FD05C0A889B9898C9186FD0FC00FB63E
:1014C00007FCF5CF808185FFF2CFA889B9898C917F
:1014D00085FFEDCFCE010E94E709E7CFDF91CF91E5
:1014E000089580E090E0892B29F00E94DD098111A8
:1014F0000C940000089508950F931F93CF93DF93EA
:101500008C01C0E0D0E0F801EC0FFD1F6491662370
:1015100071F0E091CB05F091CC050190F081E02DC8
:101520008BEC95E00995892B11F02196ECCF83E7A0
:1015300091E00E94DB0C8C0F9D1FDF91CF911F91DA
:101540000F9108950E94E31D0F931F93CF93DF9394
:10155000EC0188819981009729F02A813B81261727
:10156000370788F48B016F5F7F4F0E94191D00972A
:1015700061F0998388831B830A832C813D81232B0F
:1015800011F4FC01108281E001C080E0DF91CF9175
:101590001F910F910895EF92FF920F931F93CF9396
:1015A000DF93FC01248135816115710511F480E020
:1015B00019C041155105A9F07B01EC018A01020F08
:1015C000131FB8010E94A40A882389F32881398156
:1015D0008C819D81B701820F931F0E94FA1D1D838C
:1015E0000C8381E0DF91CF911F910F91FF90EF90DD
:1015F0000895CF93DF93EC0188819981009711F0D2
:101600000E94F416198218821D821C821B821A8283
:10161000DF91CF910895CF93DF93EC0161157105B0
:1016200061F0FB0101900020E9F73197AF01461B03
:10163000570B0E94CB0A811103C0CE010E94F90A08
:10164000CE01DF91CF910895CF92DF92EF92FF927A
:101650000F931F93CF93DF93CDB7DEB7A1970FB64C
:10166000F894DEBF0FBECDBF7C01CB01BA01F701FC
:1016700011821082138212821582148242E0420F7C
:101680008E010F5F1F4F0E943F166C01009771F093
:10169000FC0101900020E9F731978F01081B190B1D
:1016A000B801C7010E94A40A811104C0C7010E94A9
:1016B000F90A08C0F70115830483B601808191817E
:1016C0000E94FA1DA1960FB6F894DEBF0FBECDBFE3
:1016D000DF91CF911F910F91FF90EF90DF90CF900E
:1016E00008951F920F920FB60F9211242F933F93DC
:1016F0004F935F936F937F938F939F93AF93BF931A
:10170000EF93FF938DE592E00E94E709FF91EF913F
:10171000BF91AF919F918F917F916F915F914F9109
:101720003F912F910F900FBE0F901F9018951F9211
:101730000F920FB60F9211242F938F939F93EF93D5
:10174000FF93E0916D02F0916E028081E09173024F
:10175000F091740282FD12C09081809176028F5FB9
:101760008F7320917702821751F0E0917602F0E0BA
:10177000E35AFD4F958F8093760201C08081FF91DF
:10178000EF919F918F912F910F900FBE0F901F900F
:101790001895833081F028F4813099F08230A1F0DF
:1017A00008958730A9F08830B9F08430D1F4809161
:1017B00080008F7D03C0809180008F7780938000B0
:1017C000089584B58F7702C084B58F7D84BD089558
:1017D0008091B0008F7703C08091B0008F7D80939F
:1017E000B00008951F93CF93DF93282F30E0F901C5
:1017F000E350FE4F8491F901E754FD4FD491F90174
:10180000EB55FD4FC491CC23C9F0162F81110E94D6
:10181000C90BEC2FF0E0EE0FFF1FEF56FD4FA59127
:10182000B4918FB7F894111105C09C91ED2FE095FC
:10183000E92302C0EC91ED2BEC938FBFDF91CF91A8
:101840001F910895CF93DF9390E0FC01E754FD4F83
:101850002491FC01EB55FD4F8491882361F190E0C8
:10186000880F991FFC01E853FE4FC591D491FC01EC
:10187000EF56FD4FA591B491611109C09FB7F8943F
:101880008881209582238883EC912E230BC06230BF
:1018900061F49FB7F8943881822F809583238883E1
:1018A000EC912E2B2C939FBF06C08FB7F894E88144
:1018B0002E2B28838FBFDF91CF9108953FB7F894E7
:1018C0008091590290915A02A0915B02B0915C0202
:1018D00026B5A89B05C02F3F19F00196A11DB11D8B
:1018E0003FBFBA2FA92F982F8827820F911DA11DC6
:1018F000B11DBC01CD0142E0660F771F881F991F03
:101900004A95D1F708952FB7F894609155027091D8
:10191000560280915702909158022FBF08951F924E
:101920000F920FB60F9211242F933F938F939F9393
:10193000AF93BF938091550290915602A0915702A8
:10194000B09158023091540223E0230F2D3720F438
:101950000196A11DB11D05C026E8230F0296A11D09
:10196000B11D209354028093550290935602A09388
:101970005702B09358028091590290915A02A09157
:101980005B02B0915C020196A11DB11D80935902CA
:1019900090935A02A0935B02B0935C02BF91AF9107
:1019A0009F918F913F912F910F900FBE0F901F909D
:1019B00018950C945E0C009769F0FC0101900020D2
:1019C000E9F73197AF01481B590BBC018BEC95E04F
:1019D0000C94750980E090E008958F929F92AF92E9
:1019E000BF920F931F93CF93DF93CDB7DEB7A1972D
:1019F0000FB6F894DEBF0FBECDBF19A2423008F477
:101A00004AE08E010F5D1F4F842E912CA12CB12C2A
:101A1000A50194010E94DD1CE62FB901CA01015005
:101A20001109EA3014F4E05D01C0E95CD801EC93DF
:101A3000232B242B252B61F7C8010E94DB0CA196D8
:101A40000FB6F894DEBF0FBECDBFDF91CF911F91CF
:101A50000F91BF90AF909F908F9008952F923F92DB
:101A60004F925F926F927F928F929F92AF92BF92AE
:101A7000CF92DF92EF92FF920F931F93CF93DF935A
:101A8000CDB7DEB76D970FB6F894DEBF0FBECDBFF2
:101A90005C012DB63EB60E94D90CD5015A968D91A7
:101AA0009C915B97029709F41DC1ED91FC91928086
:101AB000992009F442C080819181DC01ED91FC9173
:101AC0000084F185E02D099518161906B4F545E056
:101AD00050E0BE01695E7F4FD5018D919C910E94BF
:101AE0008103009709F405C4059709F005C4888DA2
:101AF000998D982789279827998F888FEA8CFB8C56
:101B0000FE24EF24FE24FB8EEA8E892B09F4F4C315
:101B10008F8981110CC10E94830CF5016683778344
:101B200080879187228D338D4A8D5B8D232B09F41D
:101B3000DEC04530510509F4DFC30E94830C2B0140
:101B40003C01F501828D938D8130910509F061C0D2
:101B500091100BC046865786608A718A138E128E4A
:101B60000190F081E02D1282ECC3F501868197810E
:101B7000A085B185A3019201281B390B4A0B5B0B91
:101B8000DA01C90181383EE39307A105B10538F0B8
:101B9000138E128E0190F081E02D1282A3C081314C
:101BA0009742A105B10598F4F50182859385A48536
:101BB000B585A3019201281B390B4A0B5B0BDA0197
:101BC000C90181319742A105B10508F4BAC3F501F5
:101BD00086859785A089B189A3019201281B390BBD
:101BE0004A0B5B0BDA01C901813D9740A105B105A4
:101BF00008F4A7C3C12CD12CE12CF12C00E010E09B
:101C000020E030E040E050E066E0C5010E94C503FE
:101C100036C0892B09F068C0F50186859785A089B3
:101C2000B1899920B1F0481A590A6A0A7B0AF1ED84
:101C30004F16F7E05F066104710408F482C3D50112
:101C4000ED91FC91119712825B961C921E925A970D
:101C500049C0A3019201281B390B4A0B5B0BDA0127
:101C6000C90189389341A105B105F0F180819181C5
:101C7000FC0112820E94E504982E811108C0D50152
:101C80001E964D925D926D927C9251975AC388EE4A
:101C900093E0A0E0B0E0F501828B938BA48BB58B31
:101CA00081E090E0978B868B22813381F90101904E
:101CB0000020E9F731978F01021B130BC12CD12CA7
:101CC000E12CF12C41E050E062E0C5010E94C50327
:101CD000F50182859385A485B58586879787A08B36
:101CE000B18B2FC3912C2DC3992493942AC3288D93
:101CF000398D2130310509F01CCF4430510521F0D8
:101D0000483C510509F0F8C2D5011E966D937D93AC
:101D10008D939C93519781E090E05B969C938E937A
:101D20005A97C5010E940F120E94D90CE2C2F50118
:101D300080819181F1E0EF16FF0618F00E94E50422
:101D4000D8C26DB67EB697012F5F3F4F4DB75EB7D5
:101D5000421B530B0FB6F8945EBF0FBE4DBF0DB7BD
:101D60001EB70F5F1F4FA701B8010E948103E8163D
:101D7000F90609F0B5C2EA8DFB8DE00FF11F108264
:101D80000E94830CD50116966D937D938D939C9341
:101D900019978F89813109F48FC240F48630D9F0C8
:101DA0008F3009F464C0823051F094C2893211F14D
:101DB000873309F497C2843109F08CC258C0F50109
:101DC000828D938D892B39F481E090E0938F828FFF
:101DD000C5010E940F12488D598DC12CD12CE12CC8
:101DE000F12C08EC10E020E030E060E0C5010E943A
:101DF000C50378C2D50114968D919C911597892BB6
:101E000039F480E290E00E945F16F50195838483A7
:101E10008A8D9B8D1A830983800F911F08171907DC
:101E200008F05EC240E250E0B801D50114968D91F1
:101E30009C9115970E94011ECE0101960E944C12A2
:101E4000D501ED91FC911197128216968D919D917D
:101E50000D90BC91A02D88589341A109B109F501BD
:101E600086879787A08BB18B138E128E3BC2888D8D
:101E7000998DD50159969C938E935897CA8CDB8C7B
:101E80001D8F0C8F7801EC0CFD1C0E151F0508F042
:101E90000FC2F80140805180CE014C960E944C1236
:101EA000DC018D919C918E159F0508F001C28C8DEF
:101EB0009D8DFC012081213459F401960E948C17DC
:101EC000863091050CF08DC13EE0832E880E03C054
:101ED0000E948C17882EF6E74F16F2E75F0609F48A
:101EE00088C198F431E6431632E7530609F4C6C0B8
:101EF00044E6441642E7540609F45FC050E745162D
:101F00005DE6550609F0C3C11BC084E6481687E7A5
:101F1000580609F49BC0A6E74A16A7E75A0609F433
:101F20008BC1B1E64B16B7E75B0609F0B0C1EFC055
:101F300030E743163DE6530609F0A9C188248A9488
:101F40008C8D9D8D8E159F0508F0B2C1CE014C96EB
:101F50000E944C120C8D1D8D6BEF71E0C8010E9428
:101F6000F11D892B11F460E018C06EEF71E0C8011B
:101F70000E94F11D892B09F4E2C162E072E0C80100
:101F80000E94F11D892B09F4DAC16CE072E0C801EE
:101F90000E94F11D892B21F462E0882D0E94220C01
:101FA000CE014C960E944C12CBCF24E6421622E77B
:101FB000520609F0BDCF88248A94CE0101969A8BEF
:101FC000898B1C8A1B8A80E190E09E8B8D8B66E05A
:101FD00072E0CE0141960E94F604082D10E0B8018F
:101FE000CE0141960E944705F801E350FE4F8491CF
:101FF000F801E754FD4FF490F801EB55FD4F0491C3
:10200000002399F081110E94C90BE02FF0E0EE0F40
:10201000FF1FE556FD4FA591B491EC91FE2261E0C2
:1020200070E009F05AC060E058C060E070E055C050
:10203000E7E74E16E2E75E0608F462C144E644169E
:1020400047E7540609F0F0C088248A94CE014C96E4
:102050000E944C12FC01808191818E159F0508F031
:1020600027C161E0882D0E94220C8C8D9D8D0E94DD
:102070008C1761E0892B09F06AC0B1C0CE010196CE
:102080009A8B898B1C8A1B8A80E190E09E8B8D8BBA
:1020900069E072E0CE0141960E94F604682D70E07E
:1020A000CE0141960E944705FDE0F81510F422EF9D
:1020B000820E882D8770806480937C0080917A00E6
:1020C000806480937A0080917A0086FDFCCF6091D5
:1020D00078008091790070E0782BCE0141960E94C3
:1020E00047050B891C890150110929893A89C12C9E
:1020F000D12CE12CF12C40E050E064E1D6C081E627
:10210000481687E7580609F0C2C088248A94CE0191
:102110004C960E944C12DC018D919C918E159F056E
:1021200008F0C6C061E0882D0E94220C8C8D9D8D28
:102130000E948C178C0161E0882D0E94220C0115F1
:10214000110509F44CC00F3F110529F461E0882DF9
:102150000E94F20BADC0E82DF0E0E350FE4FE49199
:10216000E330F9F048F4E130B9F0E230A1F584B59C
:10217000806284BD08BD9CC0E730E9F0E83019F109
:10218000E43049F580918000806280938000109354
:102190008B0000938A008CC084B5806884BD07BD25
:1021A00087C08091800080688093800010938900B0
:1021B000009388007DC08091B00080688093B0005B
:1021C0000093B30075C08091B00080628093B0002E
:1021D0000093B4006DC0003811050CF0B7CF60E07B
:1021E000B6CFB6E74B16B2E75B0609F021CF8824DD
:1021F0008A948982BFE1B81508F45AC0E82DF0E04E
:10220000EE0FFF1FEF5EFD4F259134912115310533
:1022100009F44EC0E1E023393E0709F449C0CE017C
:102220000196F901099544C056E7451657E755064A
:1022300009F065CF88248A94CE014C960E944C12F6
:102240008C8D9D8D081B190BC00ED11E9A8389831E
:10225000DC82CB82DE82CD82898AFFE1F81540F1F3
:10226000E82DF0E0EE0FFF1FEF5AFD4F259134915E
:1022700021153105E9F04AE02B373407C9F0BE01DA
:102280006F5F7F4FCE014196F901099511C0D501CD
:1022900058964D915C915997C12CD12CE12CF12C81
:1022A00002E010E020E030E060E0C5010E94C503DC
:1022B000F501118E108E16C08A8D9B8D1A830983AD
:1022C000800F911F0817190768F4CE0101960E942C
:1022D0004C1208C0D5018D919C910E94E50402C06A
:1022E00080E001C0892D0FB6F8947EBE0FBE6DBE92
:1022F00001C0892D811121CCD501ED91FC914DCCEE
:10230000F1E64F16F2E75F0609F04FCECE010196D7
:102310009A8B898B1C8A1B8A80E190E09E8B8D8B27
:1023200069E072E0CE0141960E94F6046FEF70E022
:10233000CE0141960E94470588248A94B8CE61E078
:102340002CCE892D0FB6F8943EBE0FBE2DBE6D96D5
:102350000FB6F894DEBF0FBECDBFDF91CF911F91B6
:102360000F91FF90EF90DF90CF90BF90AF909F9034
:102370008F907F906F905F904F903F902F90089537
:10238000CF92DF92EF92FF920F931F93E82FF92FD6
:1023900005C0015011092109310961F1908196238D
:1023A0009417B9F305C0015011092109310911F140
:1023B000908196239413F7CFC12CD12CE12CF12CD2
:1023C0000AC08FEFC81AD80AE80AF80A0C151D05CA
:1023D0002E053F0579F080818623841791F36C2DBB
:1023E0007D2D8E2D9F2D1F910F91FF90EF90DF90EF
:1023F000CF90089560E070E080E090E01F910F9131
:10240000FF90EF90DF90CF9008958EE391E090934E
:1024100012068093110681E196E00C942503AF9299
:10242000BF92CF92DF92EF92FF920F931F93CF93C1
:10243000DF93CDB7DEB7C556D1090FB6F894DEBF2E
:102440000FBECDBF5C0145E650E062E671E0CE0113
:1024500001960E94AA17C12CD12CE12CF12C05E683
:1024600010E09E012F5F3F4F40E050E061E1C50169
:102470000E94C503CB59DF4F0FB6F894DEBF0FBEE5
:10248000CDBFDF91CF911F910F91FF90EF90DF9023
:10249000CF90BF90AF900895DC01ED91FC91119722
:1024A00001900020E9F7ED93FC930895CF93DF931B
:1024B000CDB7DEB7C658D1090FB6F894DEBF0FBE50
:1024C000CDBF789484B5826084BD84B5816084BDBD
:1024D00085B5826085BD85B5816085BD80916E00C2
:1024E000816080936E0010928100809181008260F3
:1024F0008093810080918100816080938100809130
:1025000080008160809380008091B100846080931E
:10251000B1008091B00081608093B00080917A001A
:10252000846080937A0080917A00826080937A0040
:1025300080917A00816080937A0080917A0080682F
:1025400080937A001092C10010922C0610922B06F4
:1025500010922A0610922906109228061092270639
:102560008DE991E090932E0680932D0690911D06A3
:10257000963108F057C02DEB30E0309328062093B9
:1025800027062BE931E030932A06209329062CE216
:1025900031E030932C0620932B0620916800983070
:1025A00050F031E09E3008F430E081E001C0880F47
:1025B0003A95EAF701C084E0822B80936800983056
:1025C00038F09E3040F0963148F020E030E008C00E
:1025D0002DE630E005C02BE630E002C02CE630E00E
:1025E0003093250620932406983030F481E001C012
:1025F000880F9A95EAF70EC0292F30E09E3018F424
:102600002850310902C02E50310981E001C0880FE5
:102610002A95EAF78093260680912D0690912E0642
:102620000197F1F780912B0690912C06892B21F1CF
:10263000809152029091530226E081319207E1F09D
:10264000009711F00E94250380912F068E7F8093C2
:102650002F06109251021092500281E196E0909361
:10266000530280935202E0912406F0912506908156
:1026700080912606892B8083E0916D02F0916E0295
:1026800082E08083E0916902F0916A021082E09119
:102690006B02F0916C028FEC808310927502E091D6
:1026A0007102F091720286E08083E0916F02F091F6
:1026B0007002808180618083E0916F02F0917002EE
:1026C000808188608083E0916F02F0917002808148
:1026D00080688083E0916F02F091700280818F7D2D
:1026E000808380E091E09093330680933206E091FE
:1026F0003006F09131068DE592E091838083E09180
:102700003006F0913106128210924B0610924A0662
:102710000E94830C6B017C0180914A0690914B06CC
:10272000019791F00E94830CDC01CB018C199D096B
:10273000AE09BF0980379741A105B10528F480E3B0
:1027400096E00E942E0DE8CF80E396E00E942E0DC9
:1027500080914A0690914B06019789F680EE91E0B0
:102760000E947C0A82ED91E00E947C0A80917C05A7
:1027700090917D0597FF17C00E94830CECE3F4E075
:1027800024E1DF01322F1D923A95E9F760837183CE
:10279000828393837496A5E0EC37FA0791F7109241
:1027A0007D0510927C0580917C0590917D05409778
:1027B000DCF5ECE3F4E080E090E024813581232B2C
:1027C00031F00196749680319105B9F72DC024E15E
:1027D000289F8001299F100D1124045C1B4F8FE15D
:1027E00090E0A0E0B0E0F80181879287A387B487EA
:1027F00081EC95E095838483178216821086168675
:10280000158681E0818B0E94830CD8016D937D93A6
:102810008D939C93139780917C0590917D050196F3
:1028200090937D0580937C050091CA0510E0CE0150
:102830000196CF57DF4F99838883C158D040CD5739
:10284000DF4F19821882C358D04080E890E0CB5700
:10285000DF4F99838883C558D04064E671E0CE018C
:102860008F579F4F0E94F604B801CE018F579F4F9C
:102870000E94470561E070E0CE018F579F4F0E9494
:10288000470541E05CE36AE271E4CE018F579F4F58
:102890000E941E0541ED59E965E772ECCE018F57A4
:1028A0009F4F0E941E0562EF71E0CE018F579F4F30
:1028B0000E94F604CD57DF4F08811981C358D040DC
:1028C00001501109CF57DF4F28813981C158D040BD
:1028D000C12CD12CE12CF12C40E050E064E180E3EC
:1028E00096E00E94C503EE24E394F12C92E0C92EF9
:1028F000D12C24E1322E80E396E00E942E0D0E941E
:10290000830CAB01BC010CE314E0F801138A128ABA
:1029100084819581892BA9F180819181A281B381E4
:1029200041845284638474844A015B01881A990A41
:10293000AA0ABB0A84149504A604B70410F1840DF6
:10294000951DA61DB71D80839183A283B3838189C2
:102950008823B9F0258536852115310519F4F38AC8
:10296000E28A0FC0878590898217930750F4F38A13
:10297000E28A0196908B87878217930710F0D38A9B
:10298000C28A7496B5E0EC37FB0709F0BFCFF801B7
:1029900082899389892B99F180850480F581E02DC6
:1029A000882339F0D80116968D919C911797099537
:1029B00001C00995F80182899389029701F58091F8
:1029C0007C0590917D05892BD1F084819581892B9F
:1029D000B1F0D801E32D1D92EA95E9F70E94830C2E
:1029E000D8016D937D938D939C93139780917C0573
:1029F00090917D05019790937D0580937C050C5EF9
:102A00001F4FB5E00C371B0711F60E94710A73CFF8
:102A10001092600210925F0288EE93E0A0E0B0E0B6
:102A20008093610290936202A0936302B093640268
:102A30002CE231E030935E0220935D0225EC30E021
:102A400030936A022093690224EC30E030936C02E8
:102A500020936B0220EC30E030936E0220936D02E5
:102A600021EC30E03093700220936F0222EC30E0D2
:102A7000309372022093710226EC30E0309374029E
:102A800020937302109276021092770210927802CD
:102A90001092790210924D0610924C0610924E063A
:102AA0002CE436E030933106209330061092330642
:102AB00010923206109235061092340610923606A5
:102AC00010923706109238061092390610923A0684
:102AD00010923B0610923C0610923D0610923E0664
:102AE00010923F0610924006109241061092420644
:102AF0001092430610924406109245061092470623
:102B000010924606109249061092480610924B0603
:102B100010924A061092140610921306809315061E
:102B200090931606A0931706B09318068EE391E0D3
:102B30009093120680931106109228061092270691
:102B400010922A061092290610922C0610922B063B
:102B500010922E0610922D0660912F066E7F6D7FCB
:102B600060932F066695617081E068278BE00E9474
:102B7000F20B61E08BE00E94220CE4ECF2E0E491C5
:102B8000E0932106E0EBF2E0E491F0E0EE0FFF1FAE
:102B9000EF56FD4F859194919093230680932206E2
:102BA00060E08AE00E94220C80912F0681FD04C023
:102BB00061E08AE00E94F20B8AE080931D06E3EC5C
:102BC000F2E0E491E0931E06EFEAF2E0E491F0E037
:102BD000EE0FFF1FE556FD4F8591949190932006CF
:102BE00080931F0681E08093CF051092CE0510924E
:102BF000CD0580E591E09093CC058093CB051092B4
:102C0000100682E08093CA0580EA95E00E943B03AB
:102C100085E090E09093C3058093C20586E090E044
:102C20009093C5058093C40587E090E09093C70515
:102C30008093C60588E090E09093C9058093C8050D
:102C400061E085E00E94220C61E086E00E94220C97
:102C500061E087E00E94220C61E088E00E94220C83
:102C60008EE795E00E943B038FEF9FEF90937D05E9
:102C700080937C0590933B0480933A040895EF92EF
:102C80000F931F93CF93DF93E80147FD02C034E019
:102C900001C034E1E42F440FFF0BF7FF03C0F195AF
:102CA000E195F109E32E022F2E2FAE010E94E017CD
:102CB000CE01DF91CF911F910F91EF900895CF93A7
:102CC000DF938230910510F482E090E0E0915106AC
:102CD000F091520620E030E0C0E0D0E0309711F1F2
:102CE0004081518148175907C0F04817590761F4CE
:102CF00082819381209719F09B838A832BC09093C4
:102D000052068093510626C02115310519F042174D
:102D1000530718F49A01BE01DF01EF010280F3812D
:102D2000E02DDCCF2115310509F1281B390B2430AA
:102D3000310590F412968D919C9113976115710550
:102D400021F0FB019383828304C090935206809309
:102D50005106FD01329644C0FD01E20FF31F81933D
:102D60009193225031092D933C933AC020914F0604
:102D700030915006232B41F42091240130912501FC
:102D80003093500620934F06209122013091230169
:102D90002115310541F42DB73EB7409126015091E0
:102DA0002701241B350BE0914F06F0915006E217E6
:102DB000F307A0F42E1B3F0B2817390778F0AC015E
:102DC0004E5F5F4F2417350748F04E0F5F1F50933B
:102DD000500640934F068193919302C0E0E0F0E0EB
:102DE000CF01DF91CF9108950F931F93CF93DF937E
:102DF000009709F48CC0FC01329713821282009173
:102E00005106109152060115110581F4208131817E
:102E1000820F931F20914F063091500628173907D3
:102E200079F5F0935006E0934F0671C0D80140E069
:102E300050E0AE17BF0750F412962D913C911397B6
:102E4000AD012115310509F1D901F3CF9D01DA0159
:102E50003383228360817181860F971F82179307C6
:102E600069F4EC0128813981260F371F2E5F3F4F0F
:102E7000318320838A819B8193838283452B29F42C
:102E8000F0935206E093510642C01396FC93EE93E2
:102E90001297ED01499159919E01240F351FE217B8
:102EA000F30771F480819181840F951F029611962A
:102EB0009C938E938281938113969C938E93129709
:102EC000E0E0F0E0D80112968D919C911397009765
:102ED00019F0F8018C01F6CF8D919C9198012E5F2D
:102EE0003F4F820F931F20914F06309150062817B5
:102EF000390769F4309729F410925206109251065E
:102F000002C0138212821093500600934F06DF9185
:102F1000CF911F910F910895FC0188279927E8947C
:102F200021912032E9F3293010F02E30C8F32B32F2
:102F300041F02D3239F4689404C00E94BE17820F0C
:102F4000911D219120532A30C0F31EF49095819554
:102F50009F4F0895FB01DC0102C005900D92415086
:102F60005040D8F70895BB274A3031F4992322F412
:102F7000BDE2909581959F4F0C94C7177AE0979F7B
:102F8000902D879F802D910D11240895BB27FB0163
:102F90005527AA27880F991FAA1FA41710F0A41B52
:102FA00083955051B9F7A05DAA3308F0A95DA193AC
:102FB000009779F7B111B1931192CB010C94461A95
:102FC0004F925F926F927F929F92AF92BF92CF92F9
:102FD000DF92EF92FF920F931F93CF93DF93CDB7C2
:102FE000DEB729970FB6F894DEBF0FBECDBF6A01DA
:102FF000122FB02E2BE3201720F0FF24F394F00EB5
:1030000002C0BCE3FB2E0F2D27E0AE014F5F5F4FE8
:103010000E946E19AC018981982F9970913031F01E
:10302000E1FC06C0E0FE06C090E205C09DE203C0E0
:103030009BE201C090E0EE2DE07183FF3CC0911156
:1030400002C083E001C084E0811718F4212F281BFF
:1030500001C020E0E1110BC0F601822F30E288238D
:1030600019F031938150FBCFC20ED11C20E099237F
:1030700029F0D6019C93F60131966F01C6010396A3
:10308000E2FE0AC03EE4D6013C9341E411964C9323
:10309000119712963C9306C03EE6F601308341E656
:1030A00041833283FC01322F40E2332309F442C0D2
:1030B00041933150FACF82FF44C0911102C083E0A6
:1030C00001C084E0811718F4212F281B01C020E0E3
:1030D000E1110BC0F601822F30E2882319F0319301
:1030E0008150FBCFC20ED11C20E0992329F0D601DC
:1030F0009C93F60131966F01C6010396E2FE0BC068
:1031000039E4D6013C933EE411963C93119736E4A2
:1031100012963C9307C039E6F60130833EE63183D0
:1031200036E63283FC01322F40E2332319F041931B
:103130003150FBCFFC01E20FF11D10828EEF9FEFAB
:10314000B7C0F1E0911101C0F0E06F2F70E01416EC
:10315000150624F49A012F5F3F4F02C021E030E0B2
:10316000260F371FBB2029F06B2D70E06F5F7F4F5C
:1031700002C060E070E0260F371F612F70E0261755
:1031800037071CF4121B212F01C020E03E2D38719F
:1031900059F4D601322F60E2332319F06D93315088
:1031A000FBCFC20ED11C20E0FF2331F0D6019C934F
:1031B000B6016F5F7F4F6B01E1110BC0F601922FDB
:1031C00030E3992319F031939150FBCFC20ED11CFB
:1031D00020E09F2D940F3A81782F7071A72E84FFE5
:1031E00003C0313309F49150191624F4993018F0C2
:1031F00098E001C091E0E42F852F57FF02C0E0E086
:1032000080E06E2F782FE0E0F0E0AEE29A2E3A01F7
:10321000691A71082A01461A570A0B2D10E01195F8
:10322000019511096F3F8FEF780729F4D6019C9221
:10323000C60101966C014617570784F0661677069B
:103240006CF47F01E40CF51CA1E0B0E0AC0FBD1FF5
:10325000EA0EFB1ED7011196BC9002C090E3B92E76
:10326000615071093196C60101967C0160177107A2
:1032700024F0D601BC926C01D5CF6417750741F4D8
:10328000363320F4353321F4A11002C081E3B82E87
:10329000F601B082F701822F90E2882319F0919312
:1032A0008150FBCFF701E20FF11D108280E090E02A
:1032B00029960FB6F894DEBF0FBECDBFDF91CF9138
:1032C0001F910F91FF90EF90DF90CF90BF90AF9044
:1032D0009F907F906F905F904F900895283008F0F6
:1032E00027E03327DA01990F311D87FD91600096A1
:1032F0006105710539F432602E5F3D9330E32A9504
:10330000E1F708959F3F30F080387105610509F0BD
:103310003C5F3C5F3D93913008F08068911DDF93E6
:10332000CF931F930F93FF92EF92192F987F96954B
:10333000E92F96959695E90FFF27EE53FF4F9927B2
:103340003327EE24FF24A701E70105900894079492
:1033500028F4360FE71EF81E491F511D660F771F10
:10336000881F991F0694A1F70590079428F4E70E8B
:10337000F81E491F561FC11D770F881F991F661F12
:103380000694A1F70590079428F4F80E491F561FDC
:10339000C71FD11D880F991F661F771F0694A1F7BD
:1033A0000590079420F4490F561FC71FD81F990F87
:1033B000661F771F881F0694A9F7849110951770D0
:1033C00041F0D695C79557954795F794E7941A9588
:1033D000C1F7E8E6F0E06894159015913591659194
:1033E000959105907FE27395E118F10A430B560B16
:1033F000C90BD009C0F7E10CF11E431F561FC91FAE
:10340000D01D7EF4703311F48A95E6CFE894015014
:1034100030F0080F0AF40027021708F4202F239534
:10342000022F7A3328F079E37D932A95E9F710C0CB
:103430007D932A9589F60694979567953795179504
:103440001794E118F10A430B560BC90BD00998F0F9
:1034500023957E9173957A3308F070E37C93201363
:10346000B8F77E9170617D9330F0839571E37D9321
:1034700070E32A95E1F71124EF90FF900F911F91CF
:10348000CF91DF91992787FD90950895DC01FC018C
:10349000672F71917723E1F7329704C07C916D9388
:1034A00070836291AE17BF07C8F308950E94981AFF
:1034B00008F481E00895E89409C097FB3EF49095E4
:1034C0008095709561957F4F8F4F9F4F9923A9F0FD
:1034D000F92F96E9BB279395F6958795779567958C
:1034E000B795F111F8CFFAF4BB0F11F460FF1BC0D0
:1034F0006F5F7F4F8F4F9F4F16C0882311F096E963
:1035000011C0772321F09EE8872F762F05C0662310
:1035100071F096E8862F70E060E02AF09A95660FC9
:10352000771F881FDAF7880F9695879597F9089582
:10353000990F0008550FAA0BE0E8FEEF16161706C4
:10354000E807F907C0F012161306E407F50798F02C
:10355000621B730B840B950B39F40A2661F0232B45
:10356000242B252B21F408950A2609F4A140A695C1
:103570008FEF811D811D08950E94CF1A0C94401B6E
:103580000E94321B38F00E94391B20F0952311F065
:103590000C94291B0C942F1B11240C94741B0E9457
:1035A000511B70F3959FC1F3950F50E0551F629F1B
:1035B000F001729FBB27F00DB11D639FAA27F00D8C
:1035C000B11DAA1F649F6627B00DA11D661F829FB3
:1035D0002227B00DA11D621F739FB00DA11D621F98
:1035E000839FA00D611D221F749F3327A00D611DB5
:1035F000231F849F600D211D822F762F6A2F112497
:103600009F5750409AF0F1F088234AF0EE0FFF1FC9
:10361000BB1F661F771F881F91505040A9F79E3F20
:10362000510580F00C94291B0C94741B5F3FE4F34C
:10363000983ED4F3869577956795B795F795E79576
:103640009F5FC1F7FE2B880F911D9695879597F97F
:10365000089597F99F6780E870E060E008959FEF14
:1036600080EC089500240A94161617061806090619
:10367000089500240A9412161306140605060895E8
:10368000092E0394000C11F4882352F0BB0F40F470
:10369000BF2B11F460FF04C06F5F7F4F8F4F9F4FB0
:1036A000089557FD9058440F551F59F05F3F71F032
:1036B0004795880F97FB991F61F09F3F79F0879599
:1036C0000895121613061406551FF2CF4695F1DF22
:1036D00008C0161617061806991FF1CF86957105B2
:1036E000610508940895E894BB2766277727CB01E6
:1036F00097F908952F923F924F925F926F927F9227
:103700008F929F92AF92BF92CF92DF92EF92FF92F1
:103710000F931F93CF93DF93CDB7DEB7CA1BDB0B9D
:103720000FB6F894DEBF0FBECDBF09942A88398842
:1037300048885F846E847D848C849B84AA84B98449
:10374000C884DF80EE80FD800C811B81AA81B98155
:10375000CE0FD11D0FB6F894DEBF0FBECDBFED0169
:1037600008955058BB27AA270E94C91B0C94401BE0
:103770000E94321B38F00E94391B20F039F49F3F21
:1037800019F426F40C942F1B0EF4E095E7FB0C942F
:10379000291BE92F0E94511B58F3BA1762077307C0
:1037A0008407950720F079F4A6F50C94731B0EF4AA
:1037B000E0950B2EBA2FA02D0B01B90190010C0141
:1037C000CA01A0011124FF27591B99F0593F50F459
:1037D000503E68F11A16F040A22F232F342F4427B1
:1037E000585FF3CF469537952795A795F0405395A9
:1037F000C9F77EF41F16BA0B620B730B840BBAF079
:103800009150A1F0FF0FBB1F661F771F881FC2F7E3
:103810000EC0BA0F621F731F841F48F487957795F7
:103820006795B795F7959E3F08F0B0CF9395880FB1
:1038300008F09927EE0F9795879508950E94321CFE
:103840000C94401B0E94391B58F00E94321B40F020
:1038500029F45F3F29F00C94291B51110C94741B1F
:103860000C942F1B0E94511B68F39923B1F355232D
:1038700091F3951B550BBB27AA2762177307840783
:1038800038F09F5F5F4F220F331F441FAA1FA9F319
:1038900035D00E2E3AF0E0E832D091505040E69507
:1038A000001CCAF72BD0FE2F29D0660F771F881F68
:1038B000BB1F261737074807AB07B0E809F0BB0B5B
:1038C000802DBF01FF2793585F4F3AF09E3F51056F
:1038D00078F00C94291B0C94741B5F3FE4F3983E22
:1038E000D4F3869577956795B795F7959F5FC9F758
:1038F000880F911D9695879597F90895E1E0660FD9
:10390000771F881FBB1F621773078407BA0720F051
:10391000621B730B840BBA0BEE1F88F7E0950895BA
:103920000E94591B88F09F5798F0B92F9927B751DB
:10393000B0F0E1F0660F771F881F991F1AF0BA9553
:10394000C9F714C0B13091F00E94731BB1E0089523
:103950000C94731B672F782F8827B85F39F0B93F15
:10396000CCF3869577956795B395D9F73EF4909506
:103970008095709561957F4F8F4F9F4F08950E945E
:10398000981A08F48FEF08950E94981A880B990BE3
:10399000089597FB072E16F4009407D077FD09D001
:1039A0000E94FF1C07FC05D03EF4909581959F4F27
:1039B0000895709561957F4F0895A1E21A2EAA1B74
:1039C000BB1BFD010DC0AA1FBB1FEE1FFF1FA217CF
:1039D000B307E407F50720F0A21BB30BE40BF50BCC
:1039E000661F771F881F991F1A9469F76095709555
:1039F000809590959B01AC01BD01CF010895AA1B54
:103A0000BB1B51E107C0AA1FBB1FA617B70710F0C9
:103A1000A61BB70B881F991F5A95A9F780959095FB
:103A2000BC01CD010895EE0FFF1F0590F491E02D2C
:103A30000994A0E0B0E0EFE1FDE10C947E1BEC0105
:103A4000009721F4CB010E945F16B8C0FC01E60F7D
:103A5000F71F9C0122503109E217F30708F4ACC0AC
:103A6000D9010D911C91119706171707B0F0053079
:103A7000110508F49FC0C80104978617970708F43A
:103A800099C002501109061B170B019311936D93F6
:103A90007C93CF010E94F4168DC05B01A01AB10A7D
:103AA0004C01800E911EA0915106B091520640E04B
:103AB00050E0E12CF12C109709F44AC0A815B90583
:103AC000D1F56D907C901197630182E0C80ED11CF6
:103AD000CA14DB0480F1A3014A195B096A0182E080
:103AE000C80ED11C1296BC9012971396AC91B5E0FB
:103AF000CB16D10440F0B282A38351834083D90115
:103B00006D937C930AC00E5F1F4FC301800F911FFE
:103B1000F90191838083EB2DFA2FE114F10431F048
:103B2000D7011396FC93EE93129744C0F09352067C
:103B3000E09351063FC08D919C911197481759070A
:103B400008F4AC017D0112960D90BC91A02DB3CF6D
:103B500080914F069091500688159905E1F446171B
:103B60005707C8F48091220190912301009741F4F6
:103B70008DB79EB74091260150912701841B950B6C
:103B8000E817F907C8F4F0935006E0934F06F901DF
:103B9000718360830FC0CB010E945F167C01009788
:103BA00059F0A801BE010E94E81DCE010E94F41642
:103BB000C70104C0CE0102C080E090E0CDB7DEB7FF
:103BC000EEE00C949A1B81E090E0F8940C94101EA7
:103BD000FB01DC0102C001900D9241505040D8F72A
:103BE0000895FB01DC018D91019080190110D9F33A
:103BF000990B0895FB01DC0101900D920020E1F783
:103C00000895FB01DC014150504048F001900D92B5
:103C10000020C9F701C01D9241505040E0F70895BF
:103C200011E0C8E6D1E004C0FE010E94131D2196F8
:0A3C3000C936D107C9F7F894FFCF99
:103C3A0066643061323936643463656534323936E4
:103C4A0038396237353262356363343738663064FF
:103C5A00200000005306800000000000080A7509D1
:103C6A00A0094F0AD109AF09C30900000000AD013C
:103C7A0075095202AC010102190294010000000008
:103C8A003A02750952026C0500000000A20A750981
:103C9A00520251027677006E616E00696E66006F9D
:103CAA007666000D0A005468652062696E206973A1
:103CBA00206D6F7265207468616E200025212100D5
:103CCA0064616E69656C2E62656E2E676F72646FD1
:103CDA006E40676D61696C2E636F6D005468655F35
:103CEA005352435F42494E5F4341504143495459FD
:103CFA000048656C6C6F20576F726C6421205468A1
:103D0A0065207372632062696E206973206375721D
:103D1A0072656E746C792061743A20002520212125
:103D2A0021005557495F5352435F62696E006F75B0
:103D3A00740070776D006477006177007075000019
:00000001FF
